:020000040800F2
:1000000000300020692A00086128000867280008DD
:100010006D280008732800087928000800000000F7
:100020000000000000000000000000007F28000821
:100030008D280008000000009B280008A92800085F
:10004000B92A0008B92A0008B92A0008B92A000804
:10005000B92A0008B92A0008B92A0008B92A0008F4
:10006000B92A0008B92A0008B5280008C5280008E0
:10007000B92A0008B92A0008B92A0008B92A0008D4
:10008000B92A0008B92A0008B92A0008B92A0008C4
:10009000B92A0008B92A0008B92A0008D928000896
:1000A000B92A0008B92A0008B92A0008B92A0008A4
:1000B000B92A0008B92A000800000000B92A00087F
:1000C000B92A00080000000000000000B92A00085A
:1000D00000000000B92A0008B92A0008B92A00085F
:1000E000B92A0008B92A000800000000000000003A
:1000F0000000000000000000000000000000000000
:1001000000000000000000000000000000000000EF
:100110000000000000000000E9280008B92A0008DB
:1001200000000000000000000000000000000000CF
:1001300000000000000000000000000000000000BF
:10014000B92A0008B92A00080000000000000000D9
:10015000000000000000000000000000000000009F
:10016000000000000000000000000000000000008F
:10017000000000000000000000000000000000007F
:0801800000000000B92A00088C
:1001900010B5054C237833B9044B13B10448AFF3C1
:1001A00000800123237010BD7C00002000000000AF
:1001B000C497000808B5034B1BB103490348AFF3CC
:1001C000008008BD0000000080000020C4970008E7
:1001D00081F0004102E000BF83F0004330B54FEAF8
:1001E00041044FEA430594EA050F08BF90EA020F65
:1001F0001FBF54EA000C55EA020C7FEA645C7FEAF8
:10020000655C00F0E2804FEA5454D4EB5555B8BF1A
:100210006D420CDD2C4480EA020281EA030382EA8B
:10022000000083EA010180EA020281EA0303362D1D
:1002300088BF30BD11F0004F4FEA01314FF4801CF0
:100240004CEA113102D0404261EB410113F0004F02
:100250004FEA03334CEA133302D0524263EB4303B9
:1002600094EA050F00F0A780A4F10104D5F1200E57
:100270000DDB02FA0EFC22FA05F2801841F10001B2
:1002800003FA0EF2801843FA05F359410EE0A5F186
:1002900020050EF1200E012A03FA0EFC28BF4CF0B7
:1002A000020C43FA05F3C01851EBE37101F000456D
:1002B00007D54FF0000EDCF1000C7EEB00006EEB7A
:1002C0000101B1F5801F1BD3B1F5001F0CD3490804
:1002D0005FEA30004FEA3C0C04F101044FEA44525B
:1002E00012F5800F80F09A80BCF1004F08BF5FEAE2
:1002F000500C50F1000041EB045141EA050130BDC2
:100300005FEA4C0C404141EB0101013C28BFB1F5D3
:10031000801FE9D291F0000F04BF01460020B1FA1E
:1003200081F308BF2033A3F10B03B3F120020CDAF1
:100330000C3208DD02F1140CC2F10C0201FA0CF0CF
:1003400021FA02F10CE002F11402D8BFC2F1200C34
:1003500001FA02F120FA0CFCDCBF41EA0C019040EA
:10036000E41AA2BF01EB0451294330BD6FEA040433
:100370001F3C1CDA0C340EDC04F11404C4F120021E
:1003800020FA04F001FA02F340EA030021FA04F330
:1003900045EA030130BDC4F10C04C4F1200220FA87
:1003A00002F001FA04F340EA0300294630BD21FAC5
:1003B00004F0294630BD94F0000F83F4801306BF8B
:1003C00081F480110134013D4EE77FEA645C18BF7F
:1003D0007FEA655C29D094EA050F08BF90EA020F16
:1003E00005D054EA000C04BF1946104630BD91EA0E
:1003F000030F1EBF0021002030BD5FEA545C05D111
:100400004000494128BF41F0004130BD14F580044F
:100410003CBF01F5801130BD01F0004545F0FE41C3
:1004200041F470014FF0000030BD7FEA645C1ABFF8
:10043000194610467FEA655C1CBF0B46024650EA2F
:10044000013406BF52EA033591EA030F41F400215B
:1004500030BD00BF90F0000F04BF0021704730B5E1
:100460004FF4806404F132044FF000054FF00001B6
:1004700050E700BF90F0000F04BF0021704730B577
:100480004FF4806404F1320410F0004548BF40424C
:100490004FF000013EE700BF42004FEAE2014FEAA1
:1004A00031014FEA02701FBF12F07F4393F07F4F7C
:1004B00081F06051704732F07F4208BF704793F07F
:1004C0007F4F04BF41F40021704730B54FF4607492
:1004D00001F0004521F000411CE700BF50EA010295
:1004E00008BF704730B54FF000050AE050EA01023E
:1004F00008BF704730B511F0004502D5404261EBAE
:1005000041014FF4806404F132045FEA915C3FF4EE
:10051000D8AE4FF003025FEADC0C18BF03325FEA8B
:10052000DC0C18BF033202EBDC02C2F1200300FA3C
:1005300003FC20FA02F001FA03FE40EA0E0021FA61
:1005400002F11444BDE600BF70B54FF0FF0C4CF44F
:10055000E06C1CEA11541DBF1CEA135594EA0C0F01
:1005600095EA0C0F00F0DEF82C4481EA030621EA3C
:100570004C5123EA4C5350EA013518BF52EA033577
:1005800041F4801143F4801338D0A0FB02CE4FF029
:100590000005E1FB02E506F00042E0FB03E54FF059
:1005A0000006E1FB03569CF0000F18BF4EF0010E51
:1005B000A4F1FF04B6F5007F64F5407404D25FEA4D
:1005C0004E0E6D4146EB060642EAC62141EA555100
:1005D0004FEAC52040EA5E504FEACE2EB4F1FD0C42
:1005E00088BFBCF5E06F1ED8BEF1004F08BF5FEAC0
:1005F000500E50F1000041EB045170BD06F0004672
:1006000046EA010140EA020081EA0301B4EB5C041E
:10061000C2BFD4EB0C0541EA045170BD41F4801116
:100620004FF0000E013C00F3AB8014F1360FDEBF3B
:10063000002001F0004170BDC4F10004203C35DA17
:100640000C341BDC04F11404C4F1200500FA05F39A
:1006500020FA04F001FA05F240EA020001F000423B
:1006600021F0004110EBD37021FA04F642EB0601B1
:100670005EEA430E08BF20EAD37070BDC4F10C04DB
:10068000C4F1200500FA04F320FA05F001FA04F29F
:1006900040EA020001F0004110EBD37041F100018B
:1006A0005EEA430E08BF20EAD37070BDC4F1200596
:1006B00000FA05F24EEA020E20FA04F301FA05F2FE
:1006C00043EA020321FA04F001F0004121FA04F2A6
:1006D00020EA020000EBD3705EEA430E08BF20EA76
:1006E000D37070BD94F0000F0FD101F000464000B0
:1006F00041EB010111F4801F08BF013CF7D041EA32
:10070000060195F0000F18BF704703F00046520035
:1007100043EB030313F4801F08BF013DF7D043EA06
:100720000603704794EA0C0F0CEA135518BF95EABC
:100730000C0F0CD050EA410618BF52EA4306D1D143
:1007400081EA030101F000414FF0000070BD50EA62
:10075000410606BF1046194652EA430619D094EAEC
:100760000C0F02D150EA013613D195EA0C0F05D1D6
:1007700052EA03361CBF104619460AD181EA03012A
:1007800001F0004141F0FE4141F470014FF00000E2
:1007900070BD41F0FE4141F4780170BD70B54FF07D
:1007A000FF0C4CF4E06C1CEA11541DBF1CEA1355FD
:1007B00094EA0C0F95EA0C0F00F0A7F8A4EB0504DF
:1007C00081EA030E52EA03354FEA013100F08880D6
:1007D0004FEA03334FF0805545EA131343EA12639F
:1007E0004FEA022245EA111545EA10654FEA002654
:1007F0000EF000419D4208BF964244F1FD0404F50D
:10080000407402D25B084FEA3202B61A65EB030568
:100810005B084FEA32024FF480104FF4002CB6EB25
:10082000020E75EB030E22BFB61A754640EA0C00A5
:100830005B084FEA3202B6EB020E75EB030E22BFE5
:10084000B61A754640EA5C005B084FEA3202B6EB26
:10085000020E75EB030E22BFB61A754640EA9C00E5
:100860005B084FEA3202B6EB020E75EB030E22BFB5
:10087000B61A754640EADC0055EA060E18D04FEA73
:10088000051545EA16754FEA06164FEAC30343EA13
:1008900052734FEAC2025FEA1C1CC0D111F4801FE0
:1008A0000BD141EA00014FF000004FF0004CB6E7D9
:1008B00011F4801F04BF01430020B4F1FD0C88BF78
:1008C000BCF5E06F3FF6AFAEB5EB030C04BFB6EB83
:1008D000020C5FEA500C50F1000041EB045170BD76
:1008E0000EF0004E4EEA113114EB5C04C2BFD4EBA3
:1008F0000C0541EA045170BD41F480114FF0000E27
:10090000013C90E645EA060E8DE60CEA135594EAA2
:100910000C0F08BF95EA0C0F3FF43BAF94EA0C0FA5
:100920000AD150EA01347FF434AF95EA0C0F7FF41A
:1009300025AF104619462CE795EA0C0F06D152EA6E
:1009400003353FF4FDAE1046194622E750EA410652
:1009500018BF52EA43067FF4C5AE50EA41047FF463
:100960000DAF52EA43057FF4EBAE12E74FEA4102C6
:10097000B2F1E04324BFB3F5001CDCF1FE5C0DD9FD
:1009800001F0004C4FEAC0024CEA5070B2F1004F47
:1009900040EB830008BF20F00100704711F0804F4A
:1009A00021D113F13872BCBF01F00040704741F40F
:1009B00080114FEA5252C2F11802C2F1200C10FA13
:1009C0000CF320FA02F018BF40F001004FEAC123F7
:1009D0004FEAD32303FA0CFC40EA0C0023FA02F39B
:1009E0004FEA4303CCE77FEA625307D150EA013371
:1009F0001EBF4FF0FE4040F44000704701F0004041
:100A000040F0FE4040F40000704700BF00000000CE
:100A100001F0FF01102A2BDB10F0070F08D010F8AF
:100A2000013B013A8B422DD010F0070F42B3F6D1B3
:100A3000F0B441EA012141EA014122F007047FF0CC
:100A400000070023F0E80256083C85EA010586EA23
:100A5000010685FA47F5A3FA87F586FA47F6A5FA5F
:100A600087F68EB9EED1F0BC01F0FF0102F007026B
:100A700032B110F8013B013A83EA010313B1F8D116
:100A80000020704701387047002D06BF35460338F7
:100A9000073815F0010F07D1013015F4807F02BF30
:100AA000013015F4C03F0130F0BC0138704700BF81
:100AB00080B582B000AF7860391D4FF0FF3301225E
:100AC000034807F0B4F87B6818460837BD4680BD78
:100AD000FC02002080B485B000AF786039607B688C
:100AE0001B685B6AFB817B681B6800225A62B7F94E
:100AF0000E3007EE903AB8EEE77ADFED116AC7EEF6
:100B0000267A9FED107A67EE877A9FED0F7A67EE6F
:100B1000877A9FED0E7A27EE877A3B6807EE903A48
:100B2000F8EEE77A67EE277AC7ED027ABB6807EE40
:100B3000903AB0EE670A1437BD465DF8047B704703
:100B400000000046EFEE6E3E295C0F3DDB0F494092
:100B500080B485B000AF87ED010AC7ED000A4C4AAA
:100B60003B6813604B4A7B6813604B4BDB68013377
:100B7000FB60D7ED017AB7EE007AF4EEC77AF1EEBA
:100B800010FA02DD4FF07E537B60D7ED007AB7EEAE
:100B9000007AF4EEC77AF1EE10FA02DD4FF07E53E0
:100BA0003B60D7ED017AF5EEC07AF1EE10FA18DD70
:100BB000394B1B68FA685A63B7EE007AD7ED017AB1
:100BC00037EE677AFB6807EE903AF8EE677A67EEE1
:100BD000277A314B1B68FCEEE77A17EE902A1A64ED
:100BE00017E0D7ED017AB7EE007A37EE877AFB6827
:100BF00007EE903AF8EE677A67EE277A264B1B6885
:100C0000FCEEE77A17EE902A5A63234B1B68FA68CA
:100C10001A64D7ED007AF5EEC07AF1EE10FA18DD1D
:100C20001D4B1B68FA68DA63B7EE007AD7ED007ADD
:100C300037EE677AFB6807EE903AF8EE677A67EE70
:100C4000277A154B1B68FCEEE77A17EE902A9A6319
:100C500017E0D7ED007AB7EE007A37EE877AFB68B7
:100C600007EE903AF8EE677A67EE277A0A4B1B6830
:100C7000FCEEE77A17EE902ADA63074B1B68FA68F6
:100C80009A6300BF1437BD465DF8047B704700BF10
:100C90008803002084030020800100200000000061
:100CA00080B588B004AFD02399B24FF47A73029321
:100CB000012301933B1D009301234722224803F0A7
:100CC000BFFCD02399B24FF47A73029301230193AE
:100CD0003B1D01330093012348221B4803F0B0FC65
:100CE0003B791B021AB27B791BB21343FB81B7F924
:100CF0000E301846FFF7BEFB4FF00002134BFFF714
:100D000023FC02460B46104619460DA3D3E90023E7
:100D1000FFF71AFC02460B4610461946FFF726FE5F
:100D20000346BB600A4BD3ED007A97ED027A77EE6B
:100D3000677AB0EE670A1037BD4680BDAFF300801A
:100D4000ABAAAAAA46DF913F2C0100200040AF3F8A
:100D50008C030020B0B586B000AF87ED010AC7ED67
:100D6000000A4FF47A717F48FFF7B4FE87ED050A59
:100D70004FF47A717C48FFF7ADFE87ED040AFFF768
:100D80008FFFF0EE407A794BC3ED007A97ED057A4C
:100D9000D7ED047A37EE277AF0EE006AC7EE267AAE
:100DA000734BC3ED007A734B1B681846FFF774FB57
:100DB00004460D466E4B1B681846FFF76DFB4FF05F
:100DC00000026D4BFFF7EAFC02460B46204629461F
:100DD000FFF704FA02460B4610461946FFF7C6FD18
:100DE0000346644A1360654B93ED007AD7ED017AB0
:100DF00077EE677AB0EEE77A614BD3ED007AB4EE26
:100E0000E77AF1EE10FA03D55C4A7B68136020E0C4
:100E10005A4BD3ED007A97ED017AB4EEE77AF1EE12
:100E200010FA0BDD554B93ED007A554BD3ED007A5C
:100E300077EE277A514BC3ED007A0AE04F4B93EDE2
:100E4000007A4F4BD3ED007A77EE677A4B4BC3EDC8
:100E5000007A4A4B93ED007A454BD3ED007A77EE5A
:100E6000677A484BC3ED007A404BD3ED007A97ED9B
:100E7000007A77EE677A444BC3ED007A434B93EDEB
:100E8000007A404BD3ED007A77EE277A3F4BC3EDE3
:100E9000007AB7EE007A3B4BD3ED007A27EE277A43
:100EA000DFED3B6A394BD3ED007A66EEA77A37EE79
:100EB000277A344BD3ED006A364BD3ED007A76EEC9
:100EC000E77ADFED356A67EEA67A77EE277AC7ED27
:100ED000037A2C4B1B682F4A1360304B93ED007A3A
:100EE000294BD3ED007A77EE277A2C4BC3ED007AAD
:100EF0009FED2B7A244BD3ED007A27EE277ADFED96
:100F0000266A264BD3ED007A66EEA77A37EE277A6B
:100F10001D4BD3ED006A234BD3ED007A76EEE77AD2
:100F2000DFED216A67EEA67A77EE277AC7ED027ABF
:100F3000154B1B681B4A136097ED037AD7ED027AB5
:100F400077EE676A97ED037AD7ED027A77EE277A24
:100F5000F0EE670AB0EE660AFFF7FAFD00BF183739
:100F6000BD46B0BD18020020CC0100209403002033
:100F7000900300209803002000408F40B40300201D
:100F8000080000209C030020A0030020A4030020F0
:100F9000CDCCCC3DAC0300200AD7233CA8030020D5
:100FA000CDCC4C3FB0030020CDCC4C3E80B483B0C0
:100FB00000AF87ED010AD7ED017AB7EE007AF4EEC3
:100FC000C77AF1EE10FA02DD4FF07E530AE0D7ED5A
:100FD000017AF5EEC07AF1EE10FA02D54FF0000377
:100FE00000E07B6807EE903AB0EE670A0C37BD462A
:100FF0005DF8047B7047000080B58AB000AF87EDD4
:10100000010A00237B622FE03B4A7B6A32F81330EF
:1010100007EE903AF8EE676A384A7B6A32F8133086
:1010200007EE903AB8EEE77AC6EE877A7B6A9B00C5
:1010300028333B441C3BC3ED007A7B6A9B0028337A
:101040003B441C3BD3ED007AB0EE670AFFF7AEFFDE
:10105000F0EE407A7B6A9B0028333B441C3BC3ED97
:10106000007A7B6A01337B627B6A032BCCDD97EDD0
:10107000037AD7ED047A37EE277AD7ED056AD7EDF4
:10108000067A76EEA77A77EE677AC7ED087A1C4B78
:1010900093ED007AD7ED087A77EE277A184BC3EDF7
:1010A000007AB7EE007AD7ED087A27EE277ADFEDDF
:1010B000156A134BD3ED007A66EEA77A37EE277ADE
:1010C000114BD3ED007AD7ED086A76EEE77ADFEDC3
:1010D0000F6A67EEA67A77EE277AC7ED077A0A4A93
:1010E0003B6A1360D7ED070A97ED010AFFF732FE5E
:1010F00000BF2837BD4680BDB80300200C0000208B
:10110000C0030020CDCCCC3DC40300200AD7233C33
:1011100080B584B000AF78607B68484A934240F065
:101120008980474B1B78032B67D801A252F823F024
:10113000411100084F110008E9110008F3110008DF
:10114000DFED400A9FED3F0AFFF704FE56E03E4BFD
:101150001B68B3F5967F06D8DFED3C0A9FED390A90
:10116000FFF7F8FD24E0384B1B68B3F5617F06D824
:10117000DFED370A9FED330AFFF7ECFD18E0324B45
:101180001B68B3F5966F06D8DFED300A9FED2D0A88
:10119000FFF7E0FD0CE0DFED2B0A9FED2A0AFFF7D9
:1011A000D9FD2C4B4FF000021A60254B02221A7019
:1011B0000023FB6014E0284AFB6832F8132027491B
:1011C000FB6831F813309A4207D9234AFB6832F89A
:1011D0001310224AFB6822F81310FB680133FB60EE
:1011E000FB68032BE7DD09E09FED1D0AFFF704FF15
:1011F00004E09FED140AFFF7FFFE00BF124B1B68CF
:101200000133114A1360174B1B78002B12D0114B7E
:1012100093ED007A144BD3ED007A77EE677A9FED69
:10122000137AF4EEC77AF1EE10FA00DC02E0044B18
:1012300003221A7000BF1037BD4680BD6402002033
:10124000C803002000000000CC030020DB0FC93FD2
:10125000DB0FC9BF98030020B80300200C0000205A
:10126000CDCC4C3FD9030020D40300200AD7233D26
:1012700080B483B000AF0346FB80FB88102B1DD1E8
:10128000194B1B78002B16D0184B93ED007A184B96
:10129000D3ED007A77EE677A9FED167AF4EEC77A8F
:1012A000F1EE10FA19D4144B01221A700F4B1B687F
:1012B000124A136002E00C4B01221A70FB88202BAB
:1012C0000CD10A4B1B680A4A13600B4B1B78002B8E
:1012D00004D0094B00221A7000E000BF0C37BD4655
:1012E0005DF8047B704700BFD803002098030020FE
:1012F000D00300200AD7233DD9030020D4030020C7
:1013000090B5CBB004AF07F069F800F067F900F0D2
:1013100013FD00F0F3FC00F0C1FC00F095FA00F0C2
:1013200063FB00F0B5FB00F0B7F900F03DFC00F006
:101330004DFA00F003FC012387F817318F4800F0C5
:1013400079FD0346002B03D0002387F8173108E00E
:101350008B4A012306CA8B4800F0C2FF874800F081
:10136000ADFE3C21884805F083FC3C21874805F010
:101370007FFC0021864805F0E9FA0421844805F045
:10138000E5FA0821824805F0E1FA0C21804805F0D1
:10139000DDFADFED800A9FED7F0AFFF7D9FB002120
:1013A0007D4805F0D3FA04227C497D4801F018FD00
:1013B0000346002B04D07B4807F0C2F900F01EFD65
:1013C000794B1B681A68784B1B6822F006021A607A
:1013D000D02399B24FF47A7302930123019307F15A
:1013E0001303009301237522644803F029F903468F
:1013F00087F8163197F81631002B04D06B4807F0A8
:101400009FF900F0FBFC07F58C73A3F205131B7822
:10141000702B04D0664807F093F900F0EFFCD0235E
:1014200099B207F58C73A3F5847380221A704FF478
:101430007A7302930123019307F1100300930123B0
:101440006B224E4802F0E8FF012007F02DF8D02370
:1014500099B207F58C73A3F5867308221A704FF4BE
:101460007A7302930123019307F10C030093012384
:101470006B22424802F0D0FFD02399B207F58C735B
:10148000A3F5887318221A704FF47A73029301231C
:10149000019307F10803009301231B22374802F050
:1014A000BBFFD02399B24FF47A73029301230193C7
:1014B000FB1D009301231B22304803F0C1F807F500
:1014C0008C73A3F211131B78182B04D0394807F042
:1014D00037F900F093FC384B00221A7097F8173157
:1014E000002B06D1354805F073F902E00A2006F01A
:1014F000DBFF0221324802F039FE0346012BF5D012
:101500004FF4FA7006F0D0FF2E4B00221A602A4BDF
:1015100001221A702C4807F0ADF810212B4802F078
:1015200025FE03461C462021284802F01FFE0346E4
:1015300007F114002246264907F00AF997F81731F7
:10154000002B11D0002000F095FD0021002000F0BC
:1015500011FF0B4A07F11400012306CA00F0C0FE78
:10156000064800F0ABFDD8E71A4807F083F807F10A
:1015700014031946184807F07DF8CEE72C01002027
:1015800000000020DC970008CC0100201802002099
:101590008001002000000000B0020020B8030020FD
:1015A00098000020EC970008E80000200098000850
:1015B0001498000830980008C80300206402002036
:1015C00000140048CC0300204C9800080004004898
:1015D000549800085C9800086098000880B596B0A0
:1015E00000AF07F1300328220021184607F0A8F9C0
:1015F00007F11C0300221A605A609A60DA601A61CF
:101600003B1D00221A605A609A60DA601A615A61C2
:1016100002233B6301233B6410237B640223FB64AE
:1016200000233B654FF460137B6507F130031846D8
:1016300003F0FEFC0346002B01D000F0DFFB0F237C
:10164000FB6102233B6200237B624FF48063BB6239
:101650000023FB6207F11C030221184604F026FD5B
:101660000346002B01D000F0C9FB4FF485537B608B
:101670004FF480737B6100233B610023BB613B1D02
:10168000184603F0AFFB0346002B01D000F0B6FB79
:1016900000BF5837BD4680BD80B58AB000AF07F1A6
:1016A0001C0300221A605A609A603B1D00221A60D7
:1016B0005A609A60DA601A615A61434B4FF0A04257
:1016C0001A60414B00225A603F4B00229A603E4B09
:1016D00001221A613C4B01225A763B4B002283F8CF
:1016E0002020394B0022DA62374B01229A62364BB6
:1016F0000022DA60344B0422DA61334B012283F892
:101700003020314B04225A612F4B00221A762E4B87
:1017100000225A632C4801F0D1F90346002B01D076
:1017200000F06CFB0023FB6107F11C0319462648FF
:1017300001F0EEFE0346002B01D000F05FFB012319
:101740007B600123BB6000233B610423FB6000231B
:101750007B610023BB613B1D19461B4801F01AFC4D
:101760000346002B01D000F049FB04237B600223D9
:10177000BB603B1D1946144801F00CFC0346002BCE
:1017800001D000F03BFB0C237B600323BB603B1DBF
:1017900019460D4801F0FEFB0346002B01D000F076
:1017A0002DFB0B237B600423BB603B1D19460648C1
:1017B00001F0F0FB0346002B01D000F01FFB00BF3F
:1017C0002837BD4680BD00BF9800002080B500AF1F
:1017D0001B4B1C4A1A601A4B40F20B225A60184BE2
:1017E00000229A60164B0122DA60154B00221A6122
:1017F000134B00225A61124B00229A61104B0022B7
:10180000DA610F4B00221A620D4802F076FD0346A2
:10181000002B01D000F0F2FA0021094802F0D6FCBA
:101820000346002B01D000F0E9FA0021044802F041
:1018300018FD0346002B01D000F0E0FA00BF80BD88
:101840002C0100200054004080B59AB000AF07F191
:10185000580300221A605A609A60DA6007F14C035C
:1018600000221A605A609A6007F1300300221A6061
:101870005A609A60DA601A615A619A613B1D2C22A3
:101880000021184607F05CF8554B564A1A60544B35
:101890001F225A60524B00229A60514B6322DA6039
:1018A0004F4B00221A614E4B00225A614C4B0022D2
:1018B0009A614B4804F034FF0346002B01D000F03E
:1018C0009DFA4FF48053BB6507F15803194644480D
:1018D00005F090FC0346002B01D000F08FFA404841
:1018E00004F0D2FF0346002B01D000F087FA00235A
:1018F000FB6400233B6500237B6507F14C0319461D
:10190000374804F009FE0346002B01D000F076FAB8
:1019100060233B6300237B630023BB630023FB63E3
:1019200000233B6400237B640023BB6407F1300386
:10193000002219462A4805F049FB0346002B01D036
:1019400000F05CFA07F1300304221946244805F040
:101950003DFB0346002B01D000F050FA07F13003A5
:10196000082219461E4805F031FB0346002B01D022
:1019700000F044FA07F130030C221946184805F02C
:1019800025FB0346002B01D000F038FA00237B60D2
:101990000023BB600023FB6000233B6100237B61CD
:1019A0004FF40053BB610023FB6100233B624FF007
:1019B00000737B620023BB620023FB623B1D194660
:1019C000074804F017FE0346002B01D000F016FA7A
:1019D000034800F091FE00BF6837BD4680BD00BFE0
:1019E00080010020002C014080B58CB000AF07F1D1
:1019F0000C0324220021184606F0A2FF3B460022D9
:101A00001A605A609A60214B4FF080421A601F4B57
:101A100000225A601D4B00229A601C4B4FF6FF7249
:101A2000DA601A4B00221A61184B00229A610123D6
:101A3000FB6000233B6101237B610023BB6100232A
:101A4000FB6100233B6201237B620023BB62002316
:101A5000FB6207F10C0319460C4805F063F80346D6
:101A6000002B01D000F0CAF900233B600023BB60CB
:101A70003B461946054804F04FFD0346002B01D0B4
:101A800000F0BCF900BF3037BD4680BDCC0100205E
:101A900080B58CB000AF07F10C032422002118465A
:101AA00006F04EFF3B4600221A605A609A60214BB6
:101AB000214A1A601F4B00225A601E4B00229A6076
:101AC0001C4B4FF6FF72DA601A4B00221A61194B59
:101AD00000229A610123FB6000233B6101237B61AB
:101AE0000023BB610023FB6100233B6201237B6277
:101AF0000023BB620023FB6207F10C0319460D486B
:101B000005F010F80346002B01D000F077F9002310
:101B10003B600023BB603B461946064804F0FCFCD2
:101B20000346002B01D000F069F900BF3037BD46F5
:101B300080BD00BF180200200004004080B584B0C2
:101B400000AF3B1D00221A605A609A60144B154A80
:101B50001A60134B3F225A60114B00229A60104BBF
:101B600040F2E732DA600E4B80229A610C4804F0B2
:101B7000D7FD0346002B01D000F040F900237B6025
:101B80000023FB603B1D1946054804F0C5FC0346D5
:101B9000002B01D000F032F900BF1037BD4680BDE8
:101BA000640200200010004080B592B000AF07F141
:101BB0002C0300221A605A609A60DA601A615A6136
:101BC0009A613B462C220021184606F0B9FE314BA3
:101BD000314A1A602F4B63225A602E4B00229A60C2
:101BE0002C4B41F61F42DA602A4B00221A61294B26
:101BF00000225A61274B00229A61264804F090FD8A
:101C00000346002B01D000F0F9F8224804F03CFE16
:101C10000346002B01D000F0F1F86023FB620023A3
:101C20003B6300237B630023BB630023FB63002330
:101C30003B6400237B6407F12C03002219461548FE
:101C400005F0C4F90346002B01D000F0D7F80023BB
:101C50003B6000237B600023BB600023FB6000230C
:101C60003B614FF400537B610023BB610023BB62E7
:101C70003B461946074804F0BDFC0346002B01D043
:101C800000F0BCF8034800F037FD00BF4837BD4600
:101C900080BD00BFB00200200044014080B500AF0D
:101CA000144B154A1A60134B4FF4E1325A60114B32
:101CB00000229A600F4B0022DA600E4B00221A615C
:101CC0000C4B0C225A610B4B00229A61094B0022EB
:101CD000DA61084B00221A62064B00225A6205485C
:101CE00005F057FF0346002B01D000F087F800BF36
:101CF00080BD00BFFC0200200044004080B582B0DF
:101D000000AF0C4B5B690B4A43F001035361094B75
:101D10005B6903F001037B607B68002200210B20DC
:101D200001F0E5FE0B2001F0FEFE00BF0837BD46C6
:101D300080BD00BF0010024080B588B000AF07F141
:101D40000C0300221A605A609A60DA601A61284B0C
:101D50005B69274A43F480035361254B5B6903F4B5
:101D60008003BB60BB68224B5B69214A43F40033AC
:101D700053611F4B5B6903F400337B607B681C4B32
:101D80005B691B4A43F480235361194B5B6903F47D
:101D900080233B603B680223FB6000233B61002300
:101DA0007B6107F10C031946124802F06DF83023ED
:101DB000FB604FF404133B6100237B6107F10C03CC
:101DC00019460D4802F060F8002200210A2001F0B7
:101DD0008EFE0A2001F0A7FE00220021172001F04C
:101DE00086FE172001F09FFE00BF2037BD4680BD54
:101DF00000100240001400480004004880B400AF06
:101E000072B600BFFEE780B586B004AF78600B46BF
:101E1000FB700A23029301230193FB1C009301230F
:101E200000227821786802F0F7FA0346184608374E
:101E3000BD4680BD80B584B000AF7860642006F0F8
:101E400033FB0023FB60AE217868FFF7DCFF03461D
:101E50001A46FB681344FB6020217868FFF7D3FF24
:101E600003461A46FB681344FB6010217868FFF7AD
:101E7000CAFF03461A46FB681344FB60B02178682A
:101E8000FFF7C1FF03461A46FB681344FB60C821F5
:101E90007868FFF7B8FF03461A46FB681344FB60F7
:101EA00000217868FFF7AFFF03461A46FB6813442A
:101EB000FB6010217868FFF7A6FF03461A46FB680F
:101EC0001344FB6040217868FFF79DFF03461A46E4
:101ED000FB681344FB6081217868FFF794FF034699
:101EE0001A46FB681344FB60FF217868FFF78BFFFD
:101EF00003461A46FB681344FB60A1217868FFF78C
:101F000082FF03461A46FB681344FB60A6217868EB
:101F1000FFF779FF03461A46FB681344FB60A821CC
:101F20007868FFF770FF03461A46FB681344FB60AE
:101F30003F217868FFF767FF03461A46FB681344A2
:101F4000FB60A4217868FFF75EFF03461A46FB6832
:101F50001344FB60D3217868FFF755FF03461A4608
:101F6000FB681344FB6000217868FFF74CFF0346D1
:101F70001A46FB681344FB60D5217868FFF743FFDE
:101F800003461A46FB681344FB60F0217868FFF7AC
:101F90003AFF03461A46FB681344FB60D921786870
:101FA000FFF731FF03461A46FB681344FB6022210A
:101FB0007868FFF728FF03461A46FB681344FB6066
:101FC000DA217868FFF71FFF03461A46FB681344BF
:101FD000FB6012217868FFF716FF03461A46FB687C
:101FE0001344FB60DB217868FFF70DFF03461A46B8
:101FF000FB681344FB6020217868FFF704FF034669
:102000001A46FB681344FB608D217868FFF7FBFEDE
:1020100003461A46FB681344FB6014217868FFF7F7
:10202000F2FE03461A46FB681344FB60AF21786852
:10203000FFF7E9FE03461A46FB681344FB60FB68A2
:10204000002B01D001230FE0002000F013F8786886
:1020500000F034F8064B00221A80054B00225A800B
:10206000034B01225A71002318461037BD4680BD2C
:10207000DC07002080B485B000AF0346FB7100236D
:10208000FB600DE0FB79002B01D1002100E0FF2176
:10209000094AFB6813440A461A70FB680133FB6067
:1020A000FB68B3F5806FEDD300BF00BF1437BD46AA
:1020B0005DF8047B704700BFDC03002080B588B06A
:1020C00004AF78600023FB7320E0FB7B503BDBB266
:1020D00019467868FFF797FE00217868FFF793FEAE
:1020E00010217868FFF78FFEFB7BDB010B4A13445E
:1020F00064220292802201920093012340227821DF
:10210000786802F089F9FB7B0133FB73FB7B072BBB
:10211000DBD900BF00BF1037BD4680BDDC03002007
:1021200080B483B000AF0346FB710B46BB7113460E
:102130007B7197F90730002B48DBBB793F2B45D8E3
:10214000254B1B79002B06D07B79002B0CBF01237C
:102150000023DBB27B717B79012B1AD1FA79BB7931
:10216000DB08D8B20346DB0113441C4AD35C5AB2E5
:10217000BB7903F00703012101FA03F35BB21343B8
:1021800059B2FA790346DB011344C9B2134AD15458
:102190001DE0FA79BB79DB08D8B20346DB011344B2
:1021A0000E4AD35C5AB2BB7903F00703012101FA4E
:1021B00003F35BB2DB435BB2134059B2FA790346D7
:1021C000DB011344C9B2054AD15400E000BF0C370B
:1021D000BD465DF8047B7047DC070020DC0300206F
:1021E00090B589B000AF0446381D80E806001A4655
:1021F0002346FB731346BB73384B1B881A463B7947
:1022000013447F2B06DC354B5B881A467B791344DD
:102210003F2B01DD00235DE00023FB614CE0BA6849
:10222000FB7B203B797901FB03F31946FB690B44E7
:102230005B0013441B887B610023BB6134E07A6937
:10224000BB6902FA03F303F40043002B12D0234BC3
:102250001B88DAB2BB69DBB21344D8B21F4B5B8870
:10226000DAB2FB69DBB21344DBB2BA7B1946FFF783
:1022700057FF16E0194B1B88DAB2BB69DBB2134477
:10228000D8B2164B5B88DAB2FB69DBB21344D9B221
:10229000BB7B002B0CBF01230023DBB21A46FFF7E8
:1022A0003FFFBB690133BB613B791A46BB6993426F
:1022B000C5D3FB690133FB617B791A46FB69934205
:1022C000ADD3064B1A883B799BB213449AB2034BA9
:1022D0001A80FB7B18462437BD4690BDDC070020E2
:1022E00080B584B000AFF860381D80E80600FB7050
:1022F00034E0FB681B780D2B0ED00D2B1BDC092B5B
:102300000ED00A2B17D11A4B5A887B799BB21344F3
:102310009AB2174B5A801EE0154B00221A801AE021
:10232000134B1A883B799BB29B009BB213449AB221
:102330000F4B1A800FE0FB681878FB783A1D06CA2D
:10234000FFF74EFF03461A46FB681B789A4202D0FD
:10235000FB681B7808E0FB680133FB60FB681B78B7
:10236000002BC6D1FB681B7818461037BD4680BDD0
:10237000DC07002080B483B000AF03460A46FB713F
:102380001346BB71FB799AB2054B1A80BB799AB29E
:10239000034B5A8000BF0C37BD465DF8047B704785
:1023A000DC07002080B483B000AF0F4B9B690E4A5E
:1023B00043F0010393610C4B9B6903F001037B60C5
:1023C0007B68094BDB69084A43F08053D361064BB5
:1023D000DB6903F080533B603B6800BF0C37BD46B0
:1023E0005DF8047B704700BF0010024080B58AB0E2
:1023F00000AF786007F1140300221A605A609A60F7
:10240000DA601A617B681B68B3F1A04F64D1344B6A
:102410005B69334A43F080535361314B5B6903F08E
:1024200080533B613B692E4B5B692D4A43F400337B
:1024300053612B4B5B6903F40033FB60FB68284B53
:102440005B69274A43F480235361254B5B6903F49E
:102450008023BB60BB6809237B610323BB6100232E
:10246000FB6107F1140319464FF0904001F00CFD99
:1024700003237B610323BB610023FB6107F114038A
:102480001946184801F000FD174B184A1A60164B00
:1024900000225A60144B00229A60134B8022DA60AB
:1024A000114B4FF480721A610F4B4FF480625A61E6
:1024B0000D4B20229A610C4B0022DA610A4801F090
:1024C0004CFB0346002B01D0FFF798FC7B68064AC3
:1024D0009A63054A7B68536200BF2837BD4680BDBA
:1024E0000010024000040048E800002008000240FC
:1024F00080B58AB000AF786007F1140300221A603B
:102500005A609A60DA601A617B681B68174A9342C6
:1025100027D1174B5B69164A43F480235361144B50
:102520005B6903F480233B613B69C0237B61122319
:10253000BB610023FB6103233B6204237B6207F141
:10254000140319460B4801F09FFC094BDB69084A4C
:1025500043F40013D361064BDB6903F40013FB6003
:10256000FB6800BF2837BD4680BD00BF0054004057
:10257000001002400004004880B586B000AF7860CB
:102580007B681B681F4A93420CD11F4B9B691E4AF4
:1025900043F4006393611C4B9B6903F400637B610C
:1025A0007B692AE07B681B68184A934214D1164B5A
:1025B000DB69154A43F01003D361134BDB6903F069
:1025C00010033B613B6900220021362001F08FFAA5
:1025D000362001F0A8FA10E07B681B680C4A934291
:1025E0000BD1094B9B69084A43F400339361064BB6
:1025F0009B6903F40033FB60FB6800BF1837BD46DE
:1026000080BD00BF002C01400010024000100040BF
:102610000044014080B58CB000AF786007F11C0326
:1026200000221A605A609A60DA601A617B681B683F
:10263000B3F1804F29D12E4BDB692D4A43F00103C2
:10264000D3612B4BDB6903F00103BB61BB69284BF2
:102650005B69274A43F400335361254B5B6903F4FC
:1026600000337B617B692223FB6102233B620023F1
:102670007B620023BB620123FB6207F11C03194646
:102680004FF0904001F000FC2DE07B681B68194A78
:10269000934228D1164BDB69154A43F00203D361FC
:1026A000134BDB6903F002033B613B69104B5B6931
:1026B0000F4A43F4003353610D4B5B6903F400335D
:1026C000FB60FB68C023FB6102233B6200237B624B
:1026D0000023BB620223FB6207F11C0319464FF083
:1026E000904001F0D1FB00BF3037BD4680BD00BF38
:1026F000001002400004004080B58AB000AF78604E
:1027000007F1140300221A605A609A60DA601A61B5
:102710007B681B682D4A934230D12D4B5B692C4A54
:1027200043F4003353612A4B5B6903F400333B618C
:102730003B694FF4E0637B610223BB610023FB61D3
:1027400000233B6206237B6207F1140319464FF016
:10275000904001F099FB4FF400637B610223BB6161
:102760000023FB6100233B620B237B6207F1140310
:1027700019464FF0904001F087FB22E07B681B6810
:10278000144A93421DD1124B5B69114A43F4003342
:1027900053610F4B5B6903F40033FB60FB684FF43C
:1027A00080537B610223BB610023FB6100233B62FA
:1027B00001237B6207F1140319464FF0904001F0AA
:1027C00063FB00BF2837BD4680BD00BF002C014021
:1027D000001002400044014080B58AB000AF78602C
:1027E00007F1140300221A605A609A60DA601A61D5
:1027F0007B681B68184A934229D1184BDB69174A3A
:1028000043F40033D361154BDB6903F400333B61C0
:102810003B69124B5B69114A43F4003353610F4B20
:102820005B6903F40033FB60FB6848F204037B61DF
:102830000223BB610023FB6103233B6207237B620E
:1028400007F1140319464FF0904001F01DFB00BF43
:102850002837BD4680BD00BF004400400010024044
:1028600080B400AFFEE780B400AFFEE780B400AFF5
:10287000FEE780B400AFFEE780B400AFFEE780B4AF
:1028800000AF00BFBD465DF8047B704780B400AF69
:1028900000BFBD465DF8047B704780B400AF00BF49
:1028A000BD465DF8047B704780B500AF05F0DCFDE8
:1028B00000BF80BD80B500AF102001F06FFC00BFED
:1028C00080BD000080B500AF024801F0ECF900BF08
:1028D00080BD00BFE800002080B500AF202001F0DF
:1028E0005DFC00BF80BD000080B500AF024804F071
:1028F0004DFA00BF80BD00BF6402002080B586B0E5
:1029000000AFF860B9607A6000237B610AE0AFF342
:1029100000800146BB685A1CBA60CAB21A707B6953
:1029200001337B617A697B689A42F0DB7B681846E9
:102930001837BD4680BD80B586B000AFF860B9607D
:102940007A6000237B6109E0BB685A1CBA601B787F
:102950001846FEF7ADF87B6901337B617A697B68C5
:102960009A42F1DB7B6818461837BD4680BD80B4BB
:1029700083B000AF78604FF0FF3318460C37BD4688
:102980005DF8047B704780B483B000AF7860396035
:102990003B684FF400525A60002318460C37BD467E
:1029A0005DF8047B704780B483B000AF786001238A
:1029B00018460C37BD465DF8047B704780B485B07F
:1029C00000AFF860B9607A60002318461437BD463E
:1029D0005DF8047B7047000080B586B000AF78607A
:1029E000144A154BD31A7B617B693B61134B1B68FF
:1029F000002B02D1114B124A1A60104B1A687B68E7
:102A000013443A699A4207D205F0E8FF03460C22C4
:102A10001A604FF0FF3309E0084B1B68FB60074B5F
:102A20001A687B681344054A1360FB681846183718
:102A3000BD4680BD0030002000040000E4070020F7
:102A40003809002080B400AF064BD3F88830054A1F
:102A500043F47003C2F8883000BFBD465DF8047BC4
:102A6000704700BF00ED00E0DFF834D0FFF7EAFF69
:102A70000C480D490D4A002302E0D458C4500433D9
:102A8000C4188C42F9D30A4A0A4C002301E01360AF
:102A90000432A242FBD305F0A7FFFEF731FCFEE7AC
:102AA00000300020000000207C00002044A000082E
:102AB0007C00002038090020FEE7000080B59AB0B5
:102AC00000AF7860002387F8673000233B6600235F
:102AD000BB607B68002B01D1012372E17B681B691D
:102AE000002B7B681B6C03F01003002B76D17B68F6
:102AF0001B6C002B52D17B6800225A647B68002239
:102B0000DA647B6800229A647B68002283F83C20A8
:102B10007868FFF76BFC7B681B689B6803F0805349
:102B2000002B3BD1786800F083FE034687F86730BE
:102B30007B681B6C03F01003002B2FD197F86730D4
:102B4000002B2BD17B681B6C23F4885323F00203EA
:102B500043F002027B681A647B681B689A687B6892
:102B60001B6822F040529A607B681B689A687B68F9
:102B70001B6842F080529A60944B1B68944AA2FBF7
:102B800003239A0C13469B0013445B00BB6002E0D6
:102B9000BB68013BBB60BB68002BF9D17B681B683D
:102BA0009B6803F08053002B07D07B681B689B68F1
:102BB00003F00053B3F1005F10D17B681B6C23F06E
:102BC000120343F010027B681A647B685B6C43F06D
:102BD00001027B685A64012387F867307B681B6CAD
:102BE00003F01003002B40F0DF8097F86730002BD4
:102BF00040F0DA807B681B689B6803F00403002BBD
:102C000040F0D2807B681B6C23F4817343F0020296
:102C10007B681A646F4BFB657B681B68B3F1A04F40
:102C200002D16D4BFB6002E04FF0A043FB607B687C
:102C30001B689B6803F00303012B08D17B681B68AA
:102C40001B6803F00103012B01D1012300E00023E5
:102C5000002B1CD1FB68002B10D0FB689B6803F095
:102C60000303012B07D1FB681B6803F00103012B51
:102C700001D1012300E00023002B08D1FB6D9B68EC
:102C800023F440327B685B681A43FB6D9A607B6873
:102C90005B7E5B037A68526B012A02D04FF480524C
:102CA00000E000221A437B68DB681A437B689B685C
:102CB00013433A6E13433B667B6893F82030012B35
:102CC0001BD17B685B7E002B09D17B685B6A013B73
:102CD0005A043B6E134343F480333B660DE07B683C
:102CE0001B6C23F0220343F020027B681A647B688C
:102CF0005B6C43F001027B685A647B689B6A012B22
:102D000007D07B689A6A7B68DB6A13433A6E134389
:102D10003B667B681B689B6803F00C03002B14D197
:102D20007B681B68DB687A68126823F4804323F0B1
:102D30000203D3607B681B7E9A037B6893F8303074
:102D40005B0013433A6E13433B667B681B68DA688B
:102D5000224B13407A681268396E0B43D3607B684C
:102D60001B69012B0CD17B681B681B6B23F00F01C7
:102D70007B68DB695A1E7B681B680A431A6307E09D
:102D80007B681B681A6B7B681B6822F00F021A6352
:102D90007B6800225A647B681B6C23F0030343F0BA
:102DA00001027B681A640AE07B681B6C23F0120343
:102DB00043F010027B681A64012387F8673097F8A4
:102DC000673018466837BD4680BD00BF140000203C
:102DD00083DE1B43000300500001005007C0F0FFDA
:102DE00080B586B000AFF860B9607A600023FB75EB
:102DF000FB681B689B6803F00403002B40F0B9805C
:102E0000FB6893F83C30012B01D10223B4E0FB684E
:102E1000012283F83C205A4B9B6803F01F03002BD0
:102E200040F0A080F86800F09FFC0346FB75FB7D36
:102E3000002B40F09280FB681B6C23F4706323F03E
:102E4000010343F48072FB681A644D4B9B6803F0E6
:102E50001F03002B04D0FB681B68B3F1A04F15D1F2
:102E6000FB681B6C23F48012FB681A64FB681B6808
:102E7000DB6803F00073002B27D0FB681B6C23F486
:102E8000405343F48052FB681A641EE0FB681B6CDD
:102E900043F48012FB681A64FB681B68B3F1A04F0F
:102EA00004D0FB681B68374A93420ED14FF0A04311
:102EB000DB6803F00073002B07D0FB681B6C23F466
:102EC000405343F48052FB681A64FB681B6C03F4A4
:102ED0008053B3F5805F06D1FB685B6C23F006027C
:102EE000FB685A6402E0FB6800225A64FB68002217
:102EF00083F83C20FB689B6B234A9A62FB689B6BC0
:102F0000224ADA62FB689B6B214A1A63FB681B68E2
:102F10001C221A60FB681B685A68FB681B6842F039
:102F200010025A60FB681B68DA68FB681B6842F095
:102F30000102DA60FB68986BFB681B684033194636
:102F4000BA687B6800F050FEFB681B689A68FB68F3
:102F50001B6842F004029A600DE0FB68002283F8CF
:102F60003C2008E00123FB75FB68002283F83C202D
:102F700001E00223FB75FB7D18461837BD4680BD76
:102F800000030050000100509D360008173700086C
:102F90003337000880B49BB000AF786039600023FD
:102FA00087F867300023BB607B6893F83C30012BC7
:102FB00001D10223A1E27B68012283F83C207B68D7
:102FC0001B689B6803F00403002B40F085823B687C
:102FD0005B68042B1CD87B681B68196B3B685A68BC
:102FE00013465B0013445B001A461F239340DB43E8
:102FF00019403B6818683B685A6813465B001344E5
:103000005B0000FA03F27B681B680A431A6363E003
:103010003B685B68092B1ED87B681B68596B3B6853
:103020005A6813465B0013445B001E3B1F2202FAE2
:1030300003F3DB4319403B6818683B685A68134642
:103040005B0013445B001E3B00FA03F27B681B68C5
:103050000A435A6340E03B685B680E2B1ED87B68CE
:103060001B68996B3B685A6813465B0013445B000E
:103070003C3B1F2202FA03F3DB4319403B6818680C
:103080003B685A6813465B0013445B003C3B00FA04
:1030900003F27B681B680A439A631DE07B681B6828
:1030A000D96B3B685A6813465B0013445B005A3B7C
:1030B0001F2202FA03F3DB4319403B6818683B68A0
:1030C0005A6813465B0013445B005A3B00FA03F254
:1030D0007B681B680A43DA637B681B689B6803F0A4
:1030E0000C03002B40F0E5803B681B68092B1CD9C2
:1030F0007B681B6899693B681A6813465B00134438
:103100001E3B072202FA03F3DB4319403B68986831
:103110003B681A6813465B0013441E3B00FA03F237
:103120007B681B680A439A6119E07B681B685969D0
:103130003B681A6813465B001344072202FA03F344
:10314000DB4319403B6898683B681A6813465B008C
:10315000134400FA03F27B681B680A435A613B6818
:103160005A697B681B68DB68DB0803F003035B00BC
:1031700002FA03F33B663B681B69013B032B4FD804
:1031800001A252F823F000BF99310008BB310008BA
:10319000DD310008FF3100087B681B681A6E9C4B0C
:1031A00013403A68126891063A6E0A431A437B68E4
:1031B0001B6842F000421A667BE07B681B685A6E0F
:1031C000934B13403A68126891063A6E0A431A43C9
:1031D0007B681B6842F000425A666AE07B681B68A5
:1031E0009A6E8B4B13403A68126891063A6E0A4306
:1031F0001A437B681B6842F000429A6659E07B687C
:103200001B68DA6E824B13403A68126891063A6E78
:103210000A431A437B681B6842F00042DA6648E0C2
:103220007B681B681B6E03F0F8423B681B689B06BB
:103230009A4207D17B681B681A6E7B681B6822F074
:1032400000421A667B681B685B6E03F0F8423B68BD
:103250001B689B069A4207D17B681B685A6E7B6885
:103260001B6822F000425A667B681B689B6E03F065
:10327000F8423B681B689B069A4207D17B681B6833
:103280009A6E7B681B6822F000429A667B681B6816
:10329000DB6E03F0F8423B681B689B069A4207D13D
:1032A0007B681B68DA6E7B681B6822F00042DA6676
:1032B00000BF7B681B689B6803F00303012B08D1E8
:1032C0007B681B681B6803F00103012B01D10123FC
:1032D00000E00023002B40F00A813B68DB68012BF3
:1032E0000FD07B681B68D3F8B0103B681B680122C5
:1032F00002FA03F3DA437B681B680A40C3F8B02084
:1033000049E07B681B68D3F8B0103B681B6801225A
:103310009A407B681B680A43C3F8B0203B681B686F
:10332000092B1CD97B681B6899693B681A6813468E
:103330005B0013441B3B072202FA03F3DB431940F3
:103340003B6898683B681A6813465B0013441B3B54
:1033500000FA03F27B681B680A439A611BE07B68F2
:103360001B6859693B681B685A1C13465B00134471
:10337000072202FA03F3DB4319403B6898683B6875
:103380001B685A1C13465B00134400FA03F27B6867
:103390001B680A435A611F4BFB653B681B68102B77
:1033A00005D1FB6D9B6803F40003002B15D03B682F
:1033B0001B68112B05D1FB6D9B6803F08073002BFC
:1033C0000BD03B681B68122B40F09180FB6D9B6813
:1033D00003F48003002B40F08A807B681B68B3F104
:1033E000A04F02D10C4BFB6002E04FF0A043FB600A
:1033F0007B681B689B6803F00303012B0ED17B687D
:103400001B681B6803F00103012B07D1012306E0B1
:1034100000F0FF8300030050000100500023002B48
:1034200050D1FB68002B10D0FB689B6803F00303AE
:10343000012B07D1FB681B6803F00103012B01D1AD
:10344000012300E00023002B3CD13B681B68102BBC
:103450001DD17B681B68B3F1A04F18D1FB6D9B6831
:1034600043F40002FB6D9A60274B1B68274AA2FBBE
:1034700003239A0C13469B0013445B00BB6002E0DD
:10348000BB68013BBB60BB68002BF9D12EE03B68F9
:103490001B68112B0BD17B681B68B3F1A04F06D1C1
:1034A000FB6D9B6843F08072FB6D9A601EE03B6889
:1034B0001B68122B1AD1FB6D9B6843F48002FB6DD5
:1034C0009A6013E07B681B6C43F020027B681A64EF
:1034D000012387F867300AE07B681B6C43F0200209
:1034E0007B681A64012387F8673000E000BF7B68BF
:1034F000002283F83C2097F8673018466C37BD46A9
:103500005DF8047B704700BF1400002083DE1B437E
:1035100080B499B000AF78603960002387F85F30DD
:103520007B681B68B3F1A04F02D15A4BBB6002E02D
:103530004FF0A043BB60BB68002B01D10123A2E088
:103540007B6893F83C30012B01D102239BE07B6820
:10355000012283F83C207B681B689B6803F004030E
:10356000002B7FD1BB689B6803F00403002B79D14B
:10357000494BBB653B681B68002B40D0BB6D9B680B
:1035800023F460423B6859687B6893F830305B03F2
:103590000B431A43BB6D9A607B681B689B6803F002
:1035A0000303012B08D17B681B681B6803F0010330
:1035B000012B01D1012300E00023002B5CD1BB686B
:1035C0009B6803F00303012B07D1BB681B6803F062
:1035D0000103012B01D1012300E00023002B4BD17B
:1035E000BB6D9B6823F4716323F00F033A68116885
:1035F0003A6892680A431A43BB6D9A603CE0BB6D1F
:103600009B6823F46042BB6D9A607B681B689B6873
:1036100003F00303012B08D17B681B681B6803F0D0
:103620000103012B01D1012300E00023002B23D152
:10363000BB689B6803F00303012B07D1BB681B68C1
:1036400003F00103012B01D1012300E00023002B33
:1036500012D1BB6D9B6823F4716323F00F03BA6D25
:10366000936009E07B681B6C43F020027B681A645E
:10367000012387F85F3000E000BF7B68002283F8F9
:103680003C2097F85F3018466437BD465DF8047BF0
:10369000704700BF000100500003005080B584B0A7
:1036A00000AF78607B685B6AFB60FB681B6C03F0B3
:1036B0005003002B26D1FB681B6C43F40072FB689F
:1036C0001A64FB681B68DB6803F44063002B15D1A8
:1036D000FB685B7E002B11D1FB681B6C23F48072AE
:1036E000FB681A64FB681B6C03F48053002B05D144
:1036F000FB681B6C43F00102FB681A64F86800F079
:10370000FDF804E0FB689B6B1B6B7868984700BF73
:103710001037BD4680BD80B584B000AF78607B684F
:103720005B6AFB60F86800F0F3F800BF1037BD4635
:1037300080BD80B584B000AF78607B685B6AFB6059
:10374000FB681B6C43F04002FB681A64FB685B6C0F
:1037500043F00402FB685A64F86800F0E3F800BF25
:103760001037BD4680BD000080B584B000AF7860E2
:103770000023FB607B681B689B6803F00303012B3D
:1037800008D17B681B681B6803F00103012B01D182
:10379000012300E00023002B43D17B681B689A685B
:1037A000224B1340002B0DD07B681B6C43F01002A2
:1037B0007B681A647B685B6C43F001027B685A6427
:1037C00001232FE07B681B689A687B681B6842F0C6
:1037D00001029A6004F05CFEF8601BE004F058FE01
:1037E0000246FB68D31A022B14D97B681B681B683E
:1037F00003F00103012B0DD07B681B6C43F010021A
:103800007B681A647B685B6C43F001027B685A64D6
:10381000012307E07B681B681B6803F00103012B91
:10382000DCD1002318461037BD4680BD3F00008024
:1038300080B584B000AF78600023FB607B681B68B4
:103840009B6803F00303012B08D17B681B681B688E
:1038500003F00103012B01D1012300E00023002B21
:1038600047D07B681B689B6803F00D03012B0FD1C9
:103870007B681B689A687B681B6842F002029A604A
:103880007B681B6803221A6004F002FEF86029E0DE
:103890007B681B6C43F010027B681A647B685B6C6E
:1038A00043F001027B685A64012323E004F0F0FD39
:1038B0000246FB68D31A022B14D97B681B689B68ED
:1038C00003F00103012B0DD17B681B6C43F0100248
:1038D0007B681A647B685B6C43F001027B685A6406
:1038E000012307E07B681B689B6803F00103012B41
:1038F000DCD0002318461037BD4680BD80B483B0AD
:1039000000AF786000BF0C37BD465DF8047B7047A0
:1039100080B483B000AF786000BF0C37BD465DF85F
:10392000047B704780B483B000AF786000BF0C3771
:10393000BD465DF8047B704780B485B000AF786009
:103940007B6803F00703FB600C4BDB68BB60BA6865
:103950004FF6FF031340BB60FB681A02BB681343BA
:1039600043F0BF6343F40033BB60044ABB68D360D9
:1039700000BF1437BD465DF8047B704700ED00E0E2
:1039800080B400AF044BDB681B0A03F00703184642
:10399000BD465DF8047B704700ED00E080B483B065
:1039A00000AF0346FB7197F90730002B0BDBFB7967
:1039B00003F01F02074997F907305B09012000FA5D
:1039C00002F241F8232000BF0C37BD465DF8047BAE
:1039D000704700BF00E100E080B483B000AF034651
:1039E0003960FB7197F90730002B0ADB3B68DAB2CC
:1039F0000C4997F907301201D2B20B4483F8002327
:103A00000AE03B68DAB20849FB7903F00F03043B94
:103A10001201D2B20B441A7600BF0C37BD465DF8D6
:103A2000047B704700E100E000ED00E080B489B065
:103A300000AFF860B9607A60FB6803F00703FB61D0
:103A4000FB69C3F10703042B28BF0423BB61FB6997
:103A50000433062B02D9FB69033B00E000237B61A2
:103A60004FF0FF32BB6902FA03F3DA43BB681A4036
:103A70007B699A404FF0FF317B6901FA03F3D94328
:103A80007B680B40134318462437BD465DF8047B22
:103A90007047000080B582B000AF78607B68013B62
:103AA000B3F1807F01D301230FE00A4A7B68013B19
:103AB00053600F214FF0FF30FFF78EFF054B0022C0
:103AC0009A60044B07221A60002318460837BD4647
:103AD00080BD00BF10E000E080B582B000AF78602C
:103AE0007868FFF729FF00BF0837BD4680BD80B565
:103AF00086B000AF0346B9607A60FB7300237B6138
:103B0000FFF73EFF78617A68B9687869FFF78EFF42
:103B1000024697F90F3011461846FFF75DFF00BFC8
:103B20001837BD4680BD80B582B000AF0346FB713B
:103B300097F907301846FFF731FF00BF0837BD4639
:103B400080BD80B582B000AF78607868FFF7A2FFD3
:103B5000034618460837BD4680BD80B584B000AF27
:103B600078600023FB607B68002B01D1012337E0E4
:103B70007B68022283F821207B681B681B68FB603E
:103B8000FB6823F47F5323F03003FB607B685A68A3
:103B90007B689B681A437B68DB681A437B681B69F8
:103BA0001A437B685B691A437B689B691A437B688D
:103BB000DB691343FA681343FB607B681B68FA6890
:103BC0001A60786800F040F97B6800229A637B688D
:103BD000012283F821207B68002283F82020002323
:103BE00018461037BD4680BD80B586B000AFF8607E
:103BF000B9607A603B600023FB75FB6893F8203066
:103C0000012B01D102234AE0FB68012283F8202026
:103C1000FB6893F82130012B3AD1FB68022283F82C
:103C20002120FB6800229A63FB681B681A68FB6806
:103C30001B6822F001021A603B687A68B968F8686C
:103C400000F0D4F8FB68DB6A002B08D0FB681B6827
:103C50001A68FB681B6842F00E021A600FE0FB68EE
:103C60001B681A68FB681B6842F00A021A60FB684E
:103C70001B681A68FB681B6822F004021A60FB6864
:103C80001B681A68FB681B6842F001021A6005E0B5
:103C9000FB68002283F820200223FB75FB7D184679
:103CA0001837BD4680BD80B584B000AF78607B68B2
:103CB000DB6B1B68FB607B681B681B68BB607B68F9
:103CC0001B6C04229A40FB681340002B24D0BB6875
:103CD00003F00403002B1FD07B681B681B6803F0F4
:103CE0002003002B07D17B681B681A687B681B6860
:103CF00022F004021A607B681A6C7B68DB6B04217B
:103D000001FA02F25A607B68DB6A002B6AD07B689A
:103D1000DB6A7868984765E07B681B6C02229A40F2
:103D2000FB681340002B2CD0BB6803F00203002B70
:103D300027D07B681B681B6803F02003002B0BD186
:103D40007B681B681A687B681B6822F00A021A608D
:103D50007B68012283F821207B681A6C7B68DB6B0F
:103D6000022101FA02F25A607B68002283F82020C7
:103D70007B689B6A002B35D07B689B6A7868984784
:103D800030E07B681B6C08229A40FB681340002BD4
:103D900028D0BB6803F00803002B23D07B681B6886
:103DA0001A687B681B6822F00E021A607B681A6C26
:103DB0007B68DB6B012101FA02F25A607B68012209
:103DC0009A637B68012283F821207B68002283F8B4
:103DD00020207B681B6B002B04D07B681B6B7868F2
:103DE0009847FFE700BF1037BD4680BD80B485B05F
:103DF00000AFF860B9607A603B60FB681A6CFB68E2
:103E0000DB6B012101FA02F25A60FB681B683A6819
:103E10005A60FB685B68102B08D1FB681B687A68E6
:103E20009A60FB681B68BA68DA6007E0FB681B6889
:103E3000BA689A60FB681B687A68DA6000BF14375A
:103E4000BD465DF8047B704780B483B000AF7860F6
:103E50007B681B681A46094B1344094AA2FB0323DB
:103E60001B099A007B681A647B68064ADA6300BF04
:103E70000C37BD465DF8047B704700BFF8FFFDBFFF
:103E8000CDCCCCCC0000024080B487B000AF7860CD
:103E9000396000237B614EE13B681A6801217B6930
:103EA00001FA03F31340FB60FB68002B00F0408134
:103EB0003B685B6803F00303012B05D03B685B683C
:103EC00003F00303022B30D17B689B683B617B6965
:103ED0005B00032202FA03F3DB433A6913403B61C0
:103EE0003B68DA687B695B0002FA03F33A691343C3
:103EF0003B617B683A699A607B685B683B61012241
:103F00007B6902FA03F3DB433A6913403B613B6888
:103F10005B681B0903F001027B6902FA03F33A694B
:103F200013433B617B683A695A603B685B6803F006
:103F30000303032B17D07B68DB683B617B695B0065
:103F4000032202FA03F3DB433A6913403B613B6807
:103F50009A687B695B0002FA03F33A6913433B6199
:103F60007B683A69DA603B685B6803F00303022B05
:103F700023D17B69DA087B68083253F822303B6131
:103F80007B6903F007039B000F2202FA03F3DB4374
:103F90003A6913403B613B681A697B6903F0070388
:103FA0009B0002FA03F33A6913433B617B69DA0829
:103FB0007B680832396943F822107B681B683B61D3
:103FC0007B695B00032202FA03F3DB433A69134087
:103FD0003B613B685B6803F003027B695B0002FAAC
:103FE00003F33A6913433B617B683A691A603B68A3
:103FF0005B6803F44033002B00F09A80554B9B69BB
:10400000544A43F001039361524B9B6903F001034F
:10401000BB60BB68504A7B699B08023352F823306F
:104020003B617B6903F003039B000F2202FA03F359
:10403000DB433A6913403B617B68B3F1904F13D087
:104040007B68464A93420DD07B68454A934207D02D
:104050007B68444A934201D1032306E0052304E030
:10406000022302E0012300E000237A6902F0030248
:10407000920093403A6913433B6137497B699B083F
:1040800002333A6941F82320374B9B683B61FB6858
:10409000DB433A6913403B613B685B6803F4801380
:1040A000002B03D03A69FB6813433B612E4A3B69FE
:1040B00093602D4BDB683B61FB68DB433A6913403F
:1040C0003B613B685B6803F40013002B03D03A6943
:1040D000FB6813433B61244A3B69D360224B5B6816
:1040E0003B61FB68DB433A6913403B613B685B68BB
:1040F00003F40033002B03D03A69FB6813433B61A0
:10410000194A3B695360184B1B683B61FB68DB43F2
:104110003A6913403B613B685B6803F48033002BD2
:1041200003D03A69FB6813433B610F4A3B69136054
:104130007B6901337B613B681A687B6922FA03F370
:10414000002B7FF4A9AE00BF00BF1C37BD465DF851
:10415000047B70470010024000000140000400484A
:1041600000080048000C00480004014080B485B0FD
:1041700000AF78600B467B807B681A697B881340B0
:10418000002B02D00123FB7301E00023FB73FB7BB8
:1041900018461437BD465DF8047B704780B582B081
:1041A00000AF0346FB80084B5A69FB881340002B85
:1041B00006D0054AFB885361FB881846FDF758F87E
:1041C00000BF0837BD4680BD0004014080B483B005
:1041D00000AF786039607B6893F84130DBB2202B08
:1041E00038D17B6893F84030012B01D1022332E0B3
:1041F0007B68012283F840207B68242283F84120D9
:104200007B681B681A687B681B6822F001021A60D1
:104210007B681B681A687B681B6822F480521A60EE
:104220007B681B6819687B681B683A680A431A60D8
:104230007B681B681A687B681B6842F001021A6081
:104240007B68202283F841207B68002283F840208D
:10425000002300E0022318460C37BD465DF8047BBE
:10426000704780B485B000AF786039607B6893F8A0
:104270004130DBB2202B39D17B6893F84030012BE1
:1042800001D1022333E07B68012283F840207B6860
:10429000242283F841207B681B681A687B681B68AE
:1042A00022F001021A607B681B681B68FB60FB68D8
:1042B00023F47063FB603B681B02FA681343FB60E6
:1042C0007B681B68FA681A607B681B681A687B68E1
:1042D0001B6842F001021A607B68202283F84120AB
:1042E0007B68002283F84020002300E00223184668
:1042F0001437BD465DF8047B704780B582B000AFCF
:1043000078607B68002B01D1012381E07B6893F802
:104310004130DBB2002B06D17B68002283F84020BD
:104320007868FEF7E5F87B68242283F841207B68F3
:104330001B681A687B681B6822F001021A607B68A0
:104340005A687B681B6822F070621A617B681B6880
:104350009A687B681B6822F400429A607B68DB687D
:10436000012B07D17B689A687B681B6842F4004286
:104370009A6006E07B689A687B681B6842F4044296
:104380009A607B68DB68022B04D17B681B684FF462
:1043900000625A607B681B685B687A68126843F049
:1043A000007343F4004353607B681B68DA687B68E2
:1043B0001B6822F40042DA607B681A697B685B69DB
:1043C00042EA03017B689B691A027B681B680A4307
:1043D000DA607B68D9697B681A6A7B681B680A4364
:1043E0001A607B681B681A687B681B6842F00102D0
:1043F0001A607B6800225A647B68202283F841207F
:104400007B6800221A637B68002283F84220002325
:1044100018460837BD4680BD80B588B002AFF86049
:10442000084611461A4603467B810B463B811346DC
:10443000FB80FB6893F84130DBB2202B40F0F98021
:104440003B6A002B02D0BB8C002B05D1FB684FF4DC
:1044500000725A640123EDE0FB6893F84030012BB1
:1044600001D10223E6E0FB68012283F8402004F03A
:104470000FF878617B690093192301224FF4004102
:10448000F86800F0C3FA0346002B01D00123D1E005
:10449000FB68212283F84120FB68402283F84220F8
:1044A000FB6800225A64FB683A6A5A62FB68BA8C5D
:1044B0005A85FB6800225A63F8883A8979897B69B2
:1044C0000193BB6A00930346F86800F0D3F90346F2
:1044D000002B05D0FB68002283F840200123A9E0CF
:1044E000FB685B8D9BB2FF2B0ED9FB68FF221A8500
:1044F000FB681B8DDAB27989002300934FF080733B
:10450000F86800F03DFC0FE0FB685B8D9AB2FB6839
:104510001A85FB681B8DDAB27989002300934FF06E
:104520000073F86800F02CFC7A69B96AF86800F04A
:10453000BCFA0346002B01D001237BE0FB685B6AD9
:104540001A78FB681B689A62FB685B6A5A1CFB68F6
:104550005A62FB685B8D9BB2013B9AB2FB685A853D
:10456000FB681B8D013B9AB2FB681A85FB685B8D6B
:104570009BB2002B34D0FB681B8D002B30D17B69A4
:104580000093BB6A00228021F86800F03FFA0346DE
:10459000002B01D001234DE0FB685B8D9BB2FF2B0C
:1045A0000ED9FB68FF221A85FB681B8DDAB2798968
:1045B000002300934FF08073F86800F0E1FB0FE0F8
:1045C000FB685B8D9AB2FB681A85FB681B8DDAB2BB
:1045D0007989002300934FF00073F86800F0D0FB56
:1045E000FB685B8D9BB2002B9ED17A69B96AF86833
:1045F00000F0A2FA0346002B01D001231AE0FB6869
:104600001B682022DA61FB681B685968FB681A681E
:104610000A4B0B405360FB68202283F84120FB6863
:10462000002283F84220FB68002283F84020002308
:1046300000E0022318461837BD4680BD00E800FEA2
:1046400080B588B002AFF860084611461A460346A6
:104650007B810B463B811346FB80FB6893F841301E
:10466000DBB2202B40F0FD803B6A002B02D0BB8CDC
:10467000002B05D1FB684FF400725A640123F1E06E
:10468000FB6893F84030012B01D10223EAE0FB687C
:10469000012283F8402003F0FBFE78617B690093E0
:1046A000192301224FF40041F86800F0AFF90346E6
:1046B000002B01D00123D5E0FB68222283F84120A2
:1046C000FB68402283F84220FB6800225A64FB68A2
:1046D0003A6A5A62FB68BA8C5A85FB6800225A63B0
:1046E000F8883A8979897B690193BB6A009303460C
:1046F000F86800F013F90346002B05D0FB68002290
:1047000083F840200123ADE0FB685B8D9BB2FF2B5B
:104710000ED9FB68FF221A85FB681B8DDAB27989F6
:10472000524B00934FF08073F86800F029FB0FE0C4
:10473000FB685B8D9AB2FB681A85FB681B8DDAB249
:1047400079894A4B00934FF00073F86800F018FB2A
:104750007B690093BB6A00220421F86800F056F9D7
:104760000346002B01D001237CE0FB681B685A6ADA
:10477000FB685B6AD2B21A70FB685B6A5A1CFB6802
:104780005A62FB681B8D013B9AB2FB681A85FB6875
:104790005B8D9BB2013B9AB2FB685A85FB685B8DCF
:1047A0009BB2002B34D0FB681B8D002B30D17B6972
:1047B0000093BB6A00228021F86800F027F90346C5
:1047C000002B01D001234DE0FB685B8D9BB2FF2BDA
:1047D0000ED9FB68FF221A85FB681B8DDAB2798936
:1047E000002300934FF08073F86800F0C9FA0FE0DF
:1047F000FB685B8D9AB2FB681A85FB681B8DDAB289
:104800007989002300934FF00073F86800F0B8FA3C
:10481000FB685B8D9BB2002B9AD17A69B96AF86804
:1048200000F08AF90346002B01D001231AE0FB684F
:104830001B682022DA61FB681B685968FB681A68EC
:104840000B4B0B405360FB68202283F84120FB6830
:10485000002283F84220FB68002283F840200023D6
:1048600000E0022318461837BD4680BD00240080B2
:1048700000E800FE80B586B002AFF8600846114639
:104880001A4603467B810B463B811346FB80FB881F
:10489000DAB27989204B00934FF08073F86800F00A
:1048A0006FFAFA69B969F86800F0FFF80346002B5F
:1048B00001D001232CE0FB88012B05D13B89DAB222
:1048C000FB681B689A6215E03B891B0A9BB2DAB24F
:1048D000FB681B689A62FA69B969F86800F0E5F844
:1048E0000346002B01D0012312E03B89DAB2FB68BA
:1048F0001B689A62FB690093BB6900228021F868FB
:1049000000F084F80346002B01D0012300E00023CF
:1049100018461037BD4680BD0020008080B586B0A7
:1049200002AFF860084611461A4603467B810B46E3
:104930003B811346FB80FB88DAB27989204B0093D8
:104940000023F86800F01CFAFA69B969F86800F009
:10495000ACF80346002B01D001232CE0FB88012B8F
:1049600005D13B89DAB2FB681B689A6215E03B8986
:104970001B0A9BB2DAB2FB681B689A62FA69B969D2
:10498000F86800F092F80346002B01D0012312E0F2
:104990003B89DAB2FB681B689A62FB690093BB69CA
:1049A00000224021F86800F031F80346002B01D0C6
:1049B000012300E0002318461037BD4680BD00BF2C
:1049C0000020008080B483B000AF78607B681B68F3
:1049D0009B6903F00203022B03D17B681B68002252
:1049E0009A627B681B689B6903F00103012B07D067
:1049F0007B681B689A697B681B6842F001029A61B8
:104A000000BF0C37BD465DF8047B704780B584B0AD
:104A100000AFF860B9603B601346FB7131E03B6862
:104A2000B3F1FF3F2DD003F033FD0246BB69D31A2B
:104A30003A689A4202D33B68002B22D1FB681B687C
:104A40009A69BB681340BA689A420CBF01230023DD
:104A5000DBB21A46FB799A4213D1FB685B6C43F0D8
:104A60002002FB685A64FB68202283F84120FB681F
:104A7000002283F84220FB68002283F840200123B3
:104A80000FE0FB681B689A69BB681340BA689A42DA
:104A90000CBF01230023DBB21A46FB799A42BED039
:104AA000002318461037BD4680BD80B584B000AFE6
:104AB000F860B9607A6033E07A68B968F86800F045
:104AC0007FF80346002B01D0012331E0BB68B3F12E
:104AD000FF3F25D003F0DCFC02467B68D31ABA689E
:104AE0009A4202D3BB68002B1AD1FB681B689B69F2
:104AF00003F00203022B13D0FB685B6C43F020022F
:104B0000FB685A64FB68202283F84120FB6800227E
:104B100083F84220FB68002283F84020012307E04D
:104B2000FB681B689B6903F00203022BC4D10023BE
:104B300018461037BD4680BD80B584B000AFF86020
:104B4000B9607A602FE07A68B968F86800F038F8E0
:104B50000346002B01D001232DE003F099FC02460F
:104B60007B68D31ABA689A4202D3BB68002B1AD169
:104B7000FB681B689B6903F02003202B13D0FB68A4
:104B80005B6C43F02002FB685A64FB68202283F8C8
:104B90004120FB68002283F84220FB68002283F852
:104BA0004020012307E0FB681B689B6903F020039A
:104BB000202BC8D1002318461037BD4680BD000009
:104BC00080B58AB000AFF860B9607A60002387F8DA
:104BD0002730FB681B689B69BB6100233B627B68D5
:104BE000FB61BB6903F01003002B68D0FB681B68F6
:104BF0001022DA6149E0BB68B3F1FF3F45D003F012
:104C000047FC0246FB69D31ABA689A4202D3BB68D2
:104C1000002B3AD1FB681B685B6803F480437B611F
:104C2000FB6893F84230FB74FB681B689B6903F4D4
:104C30000043B3F5004F21D17B69B3F5804F1DD000
:104C4000FB7C202B1AD0FB681B685A68FB681B682A
:104C500042F480425A6003F01BFCF8610EE003F05E
:104C600017FC0246FB69D31A192B07D93B6A43F09C
:104C700020033B62012387F8273006E0FB681B68AE
:104C80009B6903F02003202BE9D1FB681B689B691B
:104C900003F02003202B03D097F82730002BAAD055
:104CA00097F82730002B03D1FB681B682022DA61BC
:104CB0003B6A43F004033B62012387F82730FB681B
:104CC0001B689B69BB61BB6903F48073002B0BD02D
:104CD0003B6A43F001033B62FB681B684FF4807240
:104CE000DA61012387F82730BB6903F48063002B66
:104CF0000BD03B6A43F008033B62FB681B684FF430
:104D00008062DA61012387F82730BB6903F40073FE
:104D1000002B0BD03B6A43F002033B62FB681B682D
:104D20004FF40072DA61012387F8273097F82730B3
:104D3000002B1CD0F868FFF745FEFB681B6859681C
:104D4000FB681A680D4B0B405360FB685A6C3B6A5A
:104D50001A43FB685A64FB68202283F84120FB68F1
:104D6000002283F84220FB68002283F8402097F855
:104D7000273018462837BD4680BD00BF00E800FE3A
:104D800080B487B000AFF8607B600B467B81134630
:104D90007B727B89C3F309027B7A1B0403F47F03D4
:104DA0001A437B681A433B6A134323F000437B6139
:104DB000FB681B685A683B6A5B0D03F48061084B13
:104DC0000B43DB4302EA0301FB681B687A690A4371
:104DD0005A6000BF1C37BD465DF8047B704700BFBA
:104DE000FF63FF0380B592B000AF786000233B649F
:104DF0000023FB63002387F847307B681B6803F4BC
:104E00008033002B00F0CD80864BDB6903F08053AC
:104E1000002B0ED1834BDB69824A43F08053D36170
:104E2000804BDB6903F08053BB60BB68012387F8CC
:104E300047307D4B1B6803F48073002B18D17A4BED
:104E40001B68794A43F48073136003F021FB3864D4
:104E500008E003F01DFB02463B6CD31A642B01D91A
:104E60000323DBE0704B1B6803F48073002BF0D04E
:104E70006C4B1B6A03F44073FB63FB6B002B7DD010
:104E80007B685B6803F44073FA6B9A4276D0654B9B
:104E90001B6A23F44073FB634FF480333B633B6B2B
:104EA00093FAA3F3FB62FB6AB3FA83F3DBB21A460D
:104EB0005E4B13449B001A46012313604FF480336A
:104EC000BB63BB6B93FAA3F37B637B6BB3FA83F394
:104ED000DBB21A46554B13449B001A46002313605D
:104EE000504AFB6B1362FB6B03F00103002B45D0B0
:104EF00003F0CEFA38640AE003F0CAFA02463B6CCB
:104F0000D31A41F28832934201D9032386E0022367
:104F1000BB62BB6A93FAA3F37B6202233B623B6AE8
:104F200093FAA3F3FB61FB69B3FA83F3DBB25B098A
:104F3000DBB243F00203DBB2022B02D1394B1B6A16
:104F400007E00223BB61BB6993FAA3F37B61354B96
:104F50005B6A02223A613A6992FAA2F2FA60FA684E
:104F6000B2FA82F2D2B242F04002D2B202F01F0292
:104F7000012101FA02F21340002BBDD0294B1B6A1C
:104F800023F440727B685B68264913430B6297F8F1
:104F90004730012B05D1234BDB69224A23F0805394
:104FA000D3617B681B6803F00103002B08D01D4B05
:104FB0001B6B23F003027B689B681A4913430B6346
:104FC0007B681B6803F02003002B08D0154B1B6B7C
:104FD00023F010027B68DB68124913430B637B6884
:104FE0001B6803F08003002B08D00E4BDB6A23F410
:104FF000F8727B681B690B491343CB627B681B68A3
:1050000003F48053002B08D0064B1B6B23F48072F3
:105010007B685B69034913430B63002318464837D9
:10502000BD4680BD0010024000700040008190101D
:1050300080B5ADF5007D00AF07F50073A3F5FE73F5
:10504000186007F50073A3F5FE731B68002B02D1EF
:10505000012301F023B807F50073A3F5FE731B6865
:105060001B6803F00103002B00F07D81BC4B5B68E3
:1050700003F00C03042B0CD0B94B5B6803F00C035A
:10508000082B5CD1B64B5B6803F48033B3F5803FEB
:1050900055D14FF40033C7F8F031D7F8F03193FA17
:1050A000A3F3C7F8EC31D7F8EC31B3FA83F3DBB2F2
:1050B0005B09DBB243F00103DBB2012B02D1A84B49
:1050C0001B6815E04FF40033C7F8E831D7F8E83132
:1050D00093FAA3F3C7F8E4314FF40033C7F8E03193
:1050E000D7F8E03193FAA3F3C7F8DC319C4B5B6A45
:1050F0004FF40032C7F8D821D7F8D82192FAA2F29B
:10510000C7F8D421D7F8D421B2FA82F2D2B242F051
:105110002002D2B202F01F02012101FA02F2134072
:10512000002B00F01F8107F50073A3F5FE731B68C9
:105130005B68002B40F01681012300F0AFBF07F53C
:105140000073A3F5FE731B685B68B3F5803F06D15F
:10515000834B1B68824A43F48033136036E007F5C3
:105160000073A3F5FE731B685B68002B0CD17C4BAE
:105170001B687B4A23F480331360794B1B68784AA1
:1051800023F48023136021E007F50073A3F5FE7379
:105190001B685B68B3F5A02F0CD1714B1B68704A7C
:1051A00043F4802313606E4B1B686D4A43F48033D5
:1051B00013600BE06A4B1B68694A23F48033136069
:1051C000674B1B68664A23F480231360644BDB6AD9
:1051D00023F00F0207F50073A3F5FE731B689B68AD
:1051E0005F491343CB6207F50073A3F5FE731B6899
:1051F0005B68002B59D003F04BF9C7F8F8010AE0BF
:1052000003F046F90246D7F8F831D31A642B02D9D5
:10521000032300F043BF4FF40033C7F8D031D7F871
:10522000D03193FAA3F3C7F8CC31D7F8CC31B3FA25
:1052300083F3DBB25B09DBB243F00103DBB2012B8A
:1052400002D1474B1B6815E04FF40033C7F8C83153
:10525000D7F8C83193FAA3F3C7F8C4314FF4003339
:10526000C7F8C031D7F8C03193FAA3F3C7F8BC31FF
:105270003B4B5B6A4FF40032C7F8B821D7F8B8212E
:1052800092FAA2F2C7F8B421D7F8B421B2FA82F2A6
:10529000D2B242F02002D2B202F01F02012101FA82
:1052A00002F21340002BABD05DE003F0F1F8C7F839
:1052B000F8010AE003F0ECF80246D7F8F831D31A07
:1052C000642B02D9032300F0E9BE4FF40033C7F882
:1052D000B031D7F8B03193FAA3F3C7F8AC31D7F8AF
:1052E000AC31B3FA83F3DBB25B09DBB243F0010309
:1052F000DBB2012B02D11A4B1B6815E04FF40033CF
:10530000C7F8A831D7F8A83193FAA3F3C7F8A431A6
:105310004FF40033C7F8A031D7F8A03193FAA3F3C4
:10532000C7F89C310E4B5B6A4FF40032C7F89821E6
:10533000D7F8982192FAA2F2C7F89421D7F89421CD
:10534000B2FA82F2D2B242F02002D2B202F01F02CE
:10535000012101FA02F21340002BABD103E000BFA0
:105360000010024000BF07F50073A3F5FE731B6831
:105370001B6803F00203002B00F07D81A64B5B68E5
:1053800003F00C03002B0BD0A34B5B6803F00C0362
:10539000082B72D1A04B5B6803F48033002B6CD1D7
:1053A0000223C7F89031D7F8903193FAA3F3C7F8E6
:1053B0008C31D7F88C31B3FA83F3DBB25B09DBB203
:1053C00043F00103DBB2012B02D1934B1B6813E0C6
:1053D0000223C7F88831D7F8883193FAA3F3C7F8C6
:1053E00084310223C7F88031D7F8803193FAA3F3D0
:1053F000C7F87C31884B5B6A0222C7F87821D7F85E
:10540000782192FAA2F2C7F87421D7F87421B2FA7F
:1054100082F2D2B242F02002D2B202F01F02012187
:1054200001FA02F21340002B0AD007F50073A3F52E
:10543000FE731B681B69012B02D0012300F02EBEF6
:10544000754B1B6823F0F80207F50073A3F5FE7394
:105450001B685B69F821C7F87011D7F8701191FAD1
:10546000A1F1C7F86C11D7F86C11B1FA81F1C9B28A
:105470008B40694913430B60FDE007F50073A3F50A
:10548000FE731B681B69002B00F088800123C7F89E
:105490006831D7F8683193FAA3F3C7F86431D7F8C5
:1054A0006431B3FA83F3DBB203F1845303F584135D
:1054B0009B001A460123136002F0EAFFC7F8F801C7
:1054C0000AE002F0E5FF0246D7F8F831D31A022BC2
:1054D00002D9032300F0E2BD0223C7F86031D7F8F8
:1054E000603193FAA3F3C7F85C31D7F85C31B3FAB3
:1054F00083F3DBB25B09DBB243F00103DBB2012BC8
:1055000002D1454B1B6813E00223C7F85831D7F886
:10551000583193FAA3F3C7F854310223C7F8503136
:10552000D7F8503193FAA3F3C7F84C313A4B5B6A82
:105530000222C7F84821D7F8482192FAA2F2C7F808
:105540004421D7F84421B2FA82F2D2B242F02002CA
:10555000D2B202F01F02012101FA02F21340002B25
:10556000AFD02D4B1B6823F0F80207F50073A3F5AD
:10557000FE731B685B69F821C7F84011D7F840112A
:1055800091FAA1F1C7F83C11D7F83C11B1FA81F1B9
:10559000C9B28B40204913430B606CE00123C7F86C
:1055A0003831D7F8383193FAA3F3C7F83431D7F844
:1055B0003431B3FA83F3DBB203F1845303F584137C
:1055C0009B001A460023136002F062FFC7F8F8013F
:1055D0000AE002F05DFF0246D7F8F831D31A022B39
:1055E00002D9032300F05ABD0223C7F83031D7F89F
:1055F000303193FAA3F3C7F82C31D7F82C31B3FA32
:1056000083F3DBB25B09DBB243F00103DBB2012BB6
:1056100004D1014B1B6815E0001002400223C7F8BB
:105620002831D7F8283193FAA3F3C7F8243102239D
:10563000C7F82031D7F8203193FAA3F3C7F81C310B
:10564000C84B5B6A0222C7F81821D7F8182192FAD2
:10565000A2F2C7F81421D7F81421B2FA82F2D2B21A
:1056600042F02002D2B202F01F02012101FA02F23E
:105670001340002BADD107F50073A3F5FE731B6833
:105680001B6803F00803002B00F0108107F500737E
:10569000A3F5FE731B689B69002B79D00123C7F823
:1056A0001031D7F8103193FAA3F3C7F80C31D7F8BB
:1056B0000C31B3FA83F3DBB21A46AB4B13449B00B5
:1056C0001A460123136002F0E3FEC7F8F8010AE06E
:1056D00002F0DEFE0246D7F8F831D31A022B02D9C7
:1056E000032300F0DBBC0223C7F80831D7F80831E8
:1056F00093FAA3F3C7F8043107F50073A3F5807399
:1057000002221A6007F50073A3F580731B6893FAF1
:10571000A3F207F50073A3F582731A6007F500730F
:10572000A3F5847302221A6007F50073A3F584734E
:105730001B6893FAA3F207F50073A3F586731A604A
:10574000884B5A6A07F50073A3F588730221196024
:1057500007F50073A3F588731B6893FAA3F107F5A7
:105760000073A3F58A73196007F50073A3F58A73B4
:105770001B68B3FA83F3DBB243F06003DBB203F0E0
:105780001F03012101FA03F31340002BA0D08DE089
:1057900007F50073A3F58C7301221A6007F50073F7
:1057A000A3F58C731B6893FAA3F207F50073A3F5B6
:1057B0008E731A6007F50073A3F58E731B68B3FA36
:1057C00083F3DBB21A46684B13449B001A4600234E
:1057D000136002F05DFEC7F8F8010AE002F058FE1F
:1057E0000246D7F8F831D31A022B02D9032300F06E
:1057F00055BC07F50073A3F5907302221A6007F5F4
:105800000073A3F590731B6893FAA3F207F5007376
:10581000A3F592731A6007F50073A3F5947302223F
:105820001A6007F50073A3F594731B6893FAA3F24B
:1058300007F50073A3F596731A6007F50073A3F5D7
:10584000987302221A6007F50073A3F598731B681A
:1058500093FAA3F207F50073A3F59A731A60414B0C
:105860005A6A07F50073A3F59C730221196007F5C6
:105870000073A3F59C731B6893FAA3F107F50073FB
:10588000A3F59E73196007F50073A3F59E731B685B
:10589000B3FA83F3DBB243F06003DBB203F01F0320
:1058A000012101FA03F31340002B97D107F5007390
:1058B000A3F5FE731B681B6803F00403002B00F0C4
:1058C000A181002387F8FF31264BDB6903F0805369
:1058D000002B16D1234BDB69224A43F08053D3615E
:1058E000204BDB6903F0805207F50073A3F5FC73CE
:1058F0001A6007F50073A3F5FC731B68012387F892
:10590000FF311A4B1B6803F48073002B1AD1174B1D
:105910001B68164A43F48073136002F0B9FDC7F8A0
:10592000F80109E002F0B4FD0246D7F8F831D31AC5
:10593000642B01D90323B1E30C4B1B6803F4807380
:10594000002BEFD007F50073A3F5FE731B68DB682F
:10595000012B0DD1034B1B6A024A43F00103136272
:105960003CE000BF00100240208190100070004019
:1059700007F50073A3F5FE731B68DB68002B0CD1E1
:10598000C14B1B6AC04A23F001031362BE4B1B6A62
:10599000BD4A23F00403136220E007F50073A3F56A
:1059A000FE731B68DB68052B0CD1B74B1B6AB64A2C
:1059B00043F004031362B44B1B6AB34A43F0010380
:1059C00013620BE0B04B1B6AAF4A23F00103136272
:1059D000AD4B1B6AAC4A23F00403136207F5007356
:1059E000A3F5FE731B68DB68002B00F0818002F0DA
:1059F0004FFDC7F8F8010BE002F04AFD0246D7F868
:105A0000F831D31A41F28832934201D9032345E396
:105A100007F50073A3F5A07302221A6007F500735F
:105A2000A3F5A0731B6893FAA3F207F50073A3F51F
:105A3000A2731A6007F50073A3F5A47302221A601B
:105A400007F50073A3F5A4731B6893FAA3F207F597
:105A50000073A3F5A6731A6007F50073A3F5A67388
:105A60001B68B3FA83F3DBB25B09DBB243F00203DA
:105A7000DBB2022B02D1844B1B6A13E007F50073E3
:105A8000A3F5A87302221A6007F50073A3F5A873A3
:105A90001B6893FAA3F207F50073A3F5AA731A60C3
:105AA000794B5B6A07F50072A2F5AC7202211160B6
:105AB00007F50072A2F5AC72126892FAA2F107F52E
:105AC0000072A2F5AE72116007F50072A2F5AE7217
:105AD0001268B2FA82F2D2B242F04002D2B202F0BE
