:020000040800F2
:1000000000300020312D0008152B00081B2B0008A4
:10001000212B0008272B00082D2B000800000000D2
:10002000000000000000000000000000332B00086A
:10003000412B0008000000004F2B00085D2B00083A
:10004000812D0008812D0008812D0008812D0008D8
:10005000812D0008812D0008812D0008812D0008C8
:10006000812D0008812D0008692B0008792B0008DC
:100070008D2B0008812D0008812D0008812D00089E
:10008000812D0008812D0008812D0008812D000898
:10009000812D0008812D0008812D0008A12B00086A
:1000A000812D0008812D0008812D0008812D000878
:1000B000812D0008812D000800000000812D00081E
:1000C000812D00080000000000000000812D0008C4
:1000D00000000000812D0008812D0008812D0008FE
:1000E000812D0008812D00080000000000000000A4
:1000F0000000000000000000000000000000000000
:1001000000000000000000000000000000000000EF
:100110000000000000000000B12B0008812D000845
:1001200000000000000000000000000000000000CF
:1001300000000000000000000000000000000000BF
:10014000812D0008812D0008000000000000000043
:10015000000000000000000000000000000000009F
:10016000000000000000000000000000000000008F
:10017000000000000000000000000000000000007F
:0801800000000000812D0008C1
:1001900010B5054C237833B9044B13B10448AFF3C1
:1001A00000800123237010BD8000002000000000AB
:1001B0008C9A000808B5034B1BB103490348AFF301
:1001C000008008BD00000000840000208C9A000818
:1001D00081F0004102E000BF83F0004330B54FEAF8
:1001E00041044FEA430594EA050F08BF90EA020F65
:1001F0001FBF54EA000C55EA020C7FEA645C7FEAF8
:10020000655C00F0E2804FEA5454D4EB5555B8BF1A
:100210006D420CDD2C4480EA020281EA030382EA8B
:10022000000083EA010180EA020281EA0303362D1D
:1002300088BF30BD11F0004F4FEA01314FF4801CF0
:100240004CEA113102D0404261EB410113F0004F02
:100250004FEA03334CEA133302D0524263EB4303B9
:1002600094EA050F00F0A780A4F10104D5F1200E57
:100270000DDB02FA0EFC22FA05F2801841F10001B2
:1002800003FA0EF2801843FA05F359410EE0A5F186
:1002900020050EF1200E012A03FA0EFC28BF4CF0B7
:1002A000020C43FA05F3C01851EBE37101F000456D
:1002B00007D54FF0000EDCF1000C7EEB00006EEB7A
:1002C0000101B1F5801F1BD3B1F5001F0CD3490804
:1002D0005FEA30004FEA3C0C04F101044FEA44525B
:1002E00012F5800F80F09A80BCF1004F08BF5FEAE2
:1002F000500C50F1000041EB045141EA050130BDC2
:100300005FEA4C0C404141EB0101013C28BFB1F5D3
:10031000801FE9D291F0000F04BF01460020B1FA1E
:1003200081F308BF2033A3F10B03B3F120020CDAF1
:100330000C3208DD02F1140CC2F10C0201FA0CF0CF
:1003400021FA02F10CE002F11402D8BFC2F1200C34
:1003500001FA02F120FA0CFCDCBF41EA0C019040EA
:10036000E41AA2BF01EB0451294330BD6FEA040433
:100370001F3C1CDA0C340EDC04F11404C4F120021E
:1003800020FA04F001FA02F340EA030021FA04F330
:1003900045EA030130BDC4F10C04C4F1200220FA87
:1003A00002F001FA04F340EA0300294630BD21FAC5
:1003B00004F0294630BD94F0000F83F4801306BF8B
:1003C00081F480110134013D4EE77FEA645C18BF7F
:1003D0007FEA655C29D094EA050F08BF90EA020F16
:1003E00005D054EA000C04BF1946104630BD91EA0E
:1003F000030F1EBF0021002030BD5FEA545C05D111
:100400004000494128BF41F0004130BD14F580044F
:100410003CBF01F5801130BD01F0004545F0FE41C3
:1004200041F470014FF0000030BD7FEA645C1ABFF8
:10043000194610467FEA655C1CBF0B46024650EA2F
:10044000013406BF52EA033591EA030F41F400215B
:1004500030BD00BF90F0000F04BF0021704730B5E1
:100460004FF4806404F132044FF000054FF00001B6
:1004700050E700BF90F0000F04BF0021704730B577
:100480004FF4806404F1320410F0004548BF40424C
:100490004FF000013EE700BF42004FEAE2014FEAA1
:1004A00031014FEA02701FBF12F07F4393F07F4F7C
:1004B00081F06051704732F07F4208BF704793F07F
:1004C0007F4F04BF41F40021704730B54FF4607492
:1004D00001F0004521F000411CE700BF50EA010295
:1004E00008BF704730B54FF000050AE050EA01023E
:1004F00008BF704730B511F0004502D5404261EBAE
:1005000041014FF4806404F132045FEA915C3FF4EE
:10051000D8AE4FF003025FEADC0C18BF03325FEA8B
:10052000DC0C18BF033202EBDC02C2F1200300FA3C
:1005300003FC20FA02F001FA03FE40EA0E0021FA61
:1005400002F11444BDE600BF70B54FF0FF0C4CF44F
:10055000E06C1CEA11541DBF1CEA135594EA0C0F01
:1005600095EA0C0F00F0DEF82C4481EA030621EA3C
:100570004C5123EA4C5350EA013518BF52EA033577
:1005800041F4801143F4801338D0A0FB02CE4FF029
:100590000005E1FB02E506F00042E0FB03E54FF059
:1005A0000006E1FB03569CF0000F18BF4EF0010E51
:1005B000A4F1FF04B6F5007F64F5407404D25FEA4D
:1005C0004E0E6D4146EB060642EAC62141EA555100
:1005D0004FEAC52040EA5E504FEACE2EB4F1FD0C42
:1005E00088BFBCF5E06F1ED8BEF1004F08BF5FEAC0
:1005F000500E50F1000041EB045170BD06F0004672
:1006000046EA010140EA020081EA0301B4EB5C041E
:10061000C2BFD4EB0C0541EA045170BD41F4801116
:100620004FF0000E013C00F3AB8014F1360FDEBF3B
:10063000002001F0004170BDC4F10004203C35DA17
:100640000C341BDC04F11404C4F1200500FA05F39A
:1006500020FA04F001FA05F240EA020001F000423B
:1006600021F0004110EBD37021FA04F642EB0601B1
:100670005EEA430E08BF20EAD37070BDC4F10C04DB
:10068000C4F1200500FA04F320FA05F001FA04F29F
:1006900040EA020001F0004110EBD37041F100018B
:1006A0005EEA430E08BF20EAD37070BDC4F1200596
:1006B00000FA05F24EEA020E20FA04F301FA05F2FE
:1006C00043EA020321FA04F001F0004121FA04F2A6
:1006D00020EA020000EBD3705EEA430E08BF20EA76
:1006E000D37070BD94F0000F0FD101F000464000B0
:1006F00041EB010111F4801F08BF013CF7D041EA32
:10070000060195F0000F18BF704703F00046520035
:1007100043EB030313F4801F08BF013DF7D043EA06
:100720000603704794EA0C0F0CEA135518BF95EABC
:100730000C0F0CD050EA410618BF52EA4306D1D143
:1007400081EA030101F000414FF0000070BD50EA62
:10075000410606BF1046194652EA430619D094EAEC
:100760000C0F02D150EA013613D195EA0C0F05D1D6
:1007700052EA03361CBF104619460AD181EA03012A
:1007800001F0004141F0FE4141F470014FF00000E2
:1007900070BD41F0FE4141F4780170BD70B54FF07D
:1007A000FF0C4CF4E06C1CEA11541DBF1CEA1355FD
:1007B00094EA0C0F95EA0C0F00F0A7F8A4EB0504DF
:1007C00081EA030E52EA03354FEA013100F08880D6
:1007D0004FEA03334FF0805545EA131343EA12639F
:1007E0004FEA022245EA111545EA10654FEA002654
:1007F0000EF000419D4208BF964244F1FD0404F50D
:10080000407402D25B084FEA3202B61A65EB030568
:100810005B084FEA32024FF480104FF4002CB6EB25
:10082000020E75EB030E22BFB61A754640EA0C00A5
:100830005B084FEA3202B6EB020E75EB030E22BFE5
:10084000B61A754640EA5C005B084FEA3202B6EB26
:10085000020E75EB030E22BFB61A754640EA9C00E5
:100860005B084FEA3202B6EB020E75EB030E22BFB5
:10087000B61A754640EADC0055EA060E18D04FEA73
:10088000051545EA16754FEA06164FEAC30343EA13
:1008900052734FEAC2025FEA1C1CC0D111F4801FE0
:1008A0000BD141EA00014FF000004FF0004CB6E7D9
:1008B00011F4801F04BF01430020B4F1FD0C88BF78
:1008C000BCF5E06F3FF6AFAEB5EB030C04BFB6EB83
:1008D000020C5FEA500C50F1000041EB045170BD76
:1008E0000EF0004E4EEA113114EB5C04C2BFD4EBA3
:1008F0000C0541EA045170BD41F480114FF0000E27
:10090000013C90E645EA060E8DE60CEA135594EAA2
:100910000C0F08BF95EA0C0F3FF43BAF94EA0C0FA5
:100920000AD150EA01347FF434AF95EA0C0F7FF41A
:1009300025AF104619462CE795EA0C0F06D152EA6E
:1009400003353FF4FDAE1046194622E750EA410652
:1009500018BF52EA43067FF4C5AE50EA41047FF463
:100960000DAF52EA43057FF4EBAE12E74FEA4102C6
:10097000B2F1E04324BFB3F5001CDCF1FE5C0DD9FD
:1009800001F0004C4FEAC0024CEA5070B2F1004F47
:1009900040EB830008BF20F00100704711F0804F4A
:1009A00021D113F13872BCBF01F00040704741F40F
:1009B00080114FEA5252C2F11802C2F1200C10FA13
:1009C0000CF320FA02F018BF40F001004FEAC123F7
:1009D0004FEAD32303FA0CFC40EA0C0023FA02F39B
:1009E0004FEA4303CCE77FEA625307D150EA013371
:1009F0001EBF4FF0FE4040F44000704701F0004041
:100A000040F0FE4040F40000704700BF034613F87A
:100A1000012B002AFBD1181A013870470000000092
:100A200001F0FF01102A2BDB10F0070F08D010F89F
:100A3000013B013A8B422DD010F0070F42B3F6D1A3
:100A4000F0B441EA012141EA014122F007047FF0BC
:100A500000070023F0E80256083C85EA010586EA13
:100A6000010685FA47F5A3FA87F586FA47F6A5FA4F
:100A700087F68EB9EED1F0BC01F0FF0102F007025B
:100A800032B110F8013B013A83EA010313B1F8D106
:100A90000020704701387047002D06BF35460338E7
:100AA000073815F0010F07D1013015F4807F02BF20
:100AB000013015F4C03F0130F0BC0138704700BF71
:100AC00080B582B000AF7860391D4FF0FF3301224E
:100AD000034807F010FA7B6818460837BD4680BD0A
:100AE0009403002080B485B000AF786039607B68E3
:100AF0001B685B6AFB817B681B6800225A62B7F93E
:100B00000E3007EE903AB8EEE77ADFED116AC7EEE5
:100B1000267A9FED107A67EE877A9FED0F7A67EE5F
:100B2000877A9FED0E7A27EE877A3B6807EE903A38
:100B3000F8EEE77A67EE277AC7ED027ABB6807EE30
:100B4000903AB0EE670A1437BD465DF8047B7047F3
:100B500000000046EFEE6E3E295C0F3DDB0F494082
:100B600080B485B000AF87ED010AC7ED000A4C4A9A
:100B70003B6813604B4A7B6813604B4BDB68013367
:100B8000FB60D7ED017AB7EE007AF4EEC77AF1EEAA
:100B900010FA02DD4FF07E537B60D7ED007AB7EE9E
:100BA000007AF4EEC77AF1EE10FA02DD4FF07E53D0
:100BB0003B60D7ED017AF5EEC07AF1EE10FA18DD60
:100BC000394B1B68FA685A63B7EE007AD7ED017AA1
:100BD00037EE677AFB6807EE903AF8EE677A67EED1
:100BE000277A314B1B68FCEEE77A17EE902A1A64DD
:100BF00017E0D7ED017AB7EE007A37EE877AFB6817
:100C000007EE903AF8EE677A67EE277A264B1B6874
:100C1000FCEEE77A17EE902A5A63234B1B68FA68BA
:100C20001A64D7ED007AF5EEC07AF1EE10FA18DD0D
:100C30001D4B1B68FA68DA63B7EE007AD7ED007ACD
:100C400037EE677AFB6807EE903AF8EE677A67EE60
:100C5000277A154B1B68FCEEE77A17EE902A9A6309
:100C600017E0D7ED007AB7EE007A37EE877AFB68A7
:100C700007EE903AF8EE677A67EE277A0A4B1B6820
:100C8000FCEEE77A17EE902ADA63074B1B68FA68E6
:100C90009A6300BF1437BD465DF8047B704700BF00
:100CA000200400201C040020180200200000000086
:100CB00080B588B004AFD02399B24FF47A73029311
:100CC000012301933B1D009301234722224803F097
:100CD0001BFED02399B24FF47A7302930123019340
:100CE0003B1D01330093012348221B4803F00CFEF7
:100CF0003B791B021AB27B791BB21343FB81B7F914
:100D00000E301846FFF7B6FB4FF00002134BFFF70B
:100D10001BFC02460B46104619460DA3D3E90023DF
:100D2000FFF712FC02460B4610461946FFF71EFE5F
:100D30000346BB600A4BD3ED007A97ED027A77EE5B
:100D4000677AB0EE670A1037BD4680BDAFF300800A
:100D5000ABAAAAAA46DF913FC40100200040AF3FE2
:100D60002404002000000000B0B58AB000AF87ED79
:100D7000010AC7ED000A4FF47A71A748FFF7B2FEE7
:100D800087ED090A4FF47A71A448FFF7ABFE87EDAF
:100D9000080AFFF78DFFF0EE407AA14BC3ED007A11
:100DA00097ED097AD7ED087A37EE277AF0EE006AE8
:100DB000C7EE267A9B4BC3ED007A9B4B1B68184607
:100DC000FFF76AFB04460D46964B1B681846FFF773
:100DD00063FB4FF00002954BFFF7E0FC02460B4629
:100DE00020462946FFF7FAF902460B4610461946F7
:100DF000FFF7BCFD03468C4A13608D4B93ED007AE0
:100E0000D7ED017A77EE677AB0EEE77A894BD3EDCA
:100E1000007AB4EEE77AF1EE10FA03D5844A7B68E3
:100E2000136020E0824BD3ED007A97ED017AB4EEA7
:100E3000E77AF1EE10FA0BDD7D4B93ED007A7D4BF6
:100E4000D3ED007A77EE277A794BC3ED007A0AE08A
:100E5000774B93ED007A774BD3ED007A77EE677A94
:100E6000734BC3ED007A724B93ED007A6D4BD3ED6B
:100E7000007A77EE677A704BC3ED007A684BD3ED5A
:100E8000007A97ED007A77EE677A6C4BC3ED007AC3
:100E90006B4B93ED007A684BD3ED007A77EE277AAF
:100EA000674BC3ED007AB3EE0E7A634BD3ED007A55
:100EB00027EE277AF7EE006A614BD3ED007A66EEF3
:100EC000A77A37EE277A5C4BD3ED006A5D4BD3ED02
:100ED000007A76EEE77ADFED5C6A67EEA67A77EE67
:100EE000277AC7ED077A544B1B68564A1360574B55
:100EF00093ED007A514BD3ED007A77EE277A534B7E
:100F0000C3ED007AB1EE087A4C4BD3ED007A27EEB0
:100F1000277ADFED4F6A4D4BD3ED007A66EEA77A64
:100F200037EE277A454BD3ED006A4A4BD3ED007A72
:100F300076EEE77ADFED446A67EEA67A77EE277AF7
:100F4000C7ED067A3D4B1B68424A1360424B1B8833
:100F500007EE903AF8EE677A17EE900AFFF79CFAE0
:100F600027A3D3E90023FFF719FC02460B461046DE
:100F7000194625A3D3E90023FFF7E6FA02460B46FC
:100F80001046194622A3D3E90023FFF7DDFA0246F3
:100F90000B4610461946FFF7E9FC03467B61D7ED87
:100FA000057AB1EE0C7AF4EEC77AF1EE10FA02D5BA
:100FB0002A4B00221A7097ED077AD7ED067A77EE62
:100FC000676A97ED057AC6EE877AC7ED047A97EDE2
:100FD000077AD7ED067A77EE276A97ED057AC6EE9F
:100FE000877AC7ED037AD7ED030A97ED040AFFF776
:100FF000B7FD00BF2837BD46B0BD00BFAFF30080CE
:101000000000000000FEAF406666666666660A4045
:101010006666666666660640B002002064020020CE
:101020002C040020280400203004002000408F40C1
:101030004C04002008000020340400203804002064
:101040003C04002044040020000000004004002074
:10105000CDCC4C3D480400200C0000205004002062
:1010600080B483B000AF87ED010AD7ED017AB7EE07
:10107000007AF4EEC77AF1EE10FA02DD4FF07E53FB
:101080000AE0D7ED017AF5EEC07AF1EE10FA02D55A
:101090004FF0000300E07B6807EE903AB0EE670A7D
:1010A0000C37BD465DF8047B7047000080B58AB000
:1010B00000AF87ED010A00237B622FE03B4A7B6A89
:1010C00032F8133007EE903AF8EE676A384A7B6AD6
:1010D00032F8133007EE903AB8EEE77AC6EE877A28
:1010E0007B6A9B0028333B441C3BC3ED007A7B6A40
:1010F0009B0028333B441C3BD3ED007AB0EE670ADB
:10110000FFF7AEFFF0EE407A7B6A9B0028333B444A
:101110001C3BC3ED007A7B6A01337B627B6A032B45
:10112000CCDD97ED037AD7ED047A37EE277AD7ED49
:10113000056AD7ED067A76EEA77A77EE677AC7ED7D
:10114000087A1C4B93ED007AD7ED087A77EE277A70
:10115000184BC3ED007AB1EE047AD7ED087A27EE8A
:10116000277ADFED156A134BD3ED007A66EEA77A86
:1011700037EE277A114BD3ED007AD7ED086A76EE79
:10118000E77ADFED0D6A67EEA67A77EE277AC7ED8C
:10119000077A0A4A3B6A1360D7ED070A97ED010AFE
:1011A000FFF7E2FD00BF2837BD4680BD5404002094
:1011B000100000205C0400200000000060040020FB
:1011C00080B584B000AF78607B68484A934240F0B5
:1011D0008980474B1B78032B67D801A252F823F074
:1011E000F1110008FF11000899120008A31200086D
:1011F000DFED400A9FED3F0AFFF7B6FD56E03E4B9C
:101200001B68B3F5967F06D8DFED3C0A9FED390ADF
:10121000FFF7AAFD24E0384B1B68B3F5617F06D8C1
:10122000DFED370A9FED330AFFF79EFD18E0324BE2
:101230001B68B3F5966F06D8DFED300A9FED2D0AD7
:10124000FFF792FD0CE0DFED2B0A9FED2A0AFFF776
:101250008BFD2C4B4FF000021A60254B02221A70B6
:101260000023FB6014E0284AFB6832F8132027496A
:10127000FB6831F813309A4207D9234AFB6832F8E9
:101280001310224AFB6822F81310FB680133FB603D
:10129000FB68032BE7DD09E09FED1D0AFFF706FF62
:1012A00004E09FED140AFFF701FF00BF124B1B681B
:1012B0000133114A1360174B1B78002B12D0114BCE
:1012C00093ED007A144BD3ED007A77EE677A9FEDB9
:1012D000137AF4EEC77AF1EE10FA00DC02E0044B68
:1012E00003221A7000BF1037BD4680BDFC020020EB
:1012F000500400200000000064040020DB0FC93F00
:10130000DB0FC9BF3004002054040020100000206F
:101310009A99193F710400206C0400208FC2753D1A
:1013200080B483B000AF0346FB80FB88102B1DD137
:10133000194B1B78002B16D0184B93ED007A184BE5
:10134000D3ED007A77EE677A9FED167AF4EEC77ADE
:10135000F1EE10FA19D4144B01221A700F4B1B68CE
:10136000124A136002E00C4B01221A70FB88202BFA
:101370000CD10A4B1B680A4A13600B4B1B78002BDD
:1013800004D0094B00221A7000E000BF0C37BD46A4
:101390005DF8047B704700BF70040020300400201B
:1013A000680400208FC2753D710400206C04002089
:1013B00090B5CBB004AF07F075F900F095F900F0E7
:1013C000A7FD00F07FFD00F04DFD00F021FB00F0D7
:1013D000EFFB00F041FC00F0E5F900F0C9FC00F083
:1013E000D9FA00F08FFC00F077FA012387F8173163
:1013F000A14800F00BFE0346002B03D0002387F822
:10140000173108E09D4A012306CA9D4801F054F8AF
:10141000994800F03FFF3C219A4805F08DFD3C21A2
:10142000994805F089FD0021984805F0F3FB042157
:10143000964805F0EFFB0821944805F0EBFB0C21E2
:10144000924805F0E7FBDFED920A9FED910AFFF766
:1014500087FB00218F4805F0DDFB04228E498F4871
:1014600001F022FE0346002B04D08D4807F0CCFA91
:1014700000F0B0FD8B4B1B681A688A4B1B6822F08A
:1014800006021A6001228849884801F00DFE0346D1
:10149000002B04D0824807F0B7FA00F09BFD844B84
:1014A0001B681A68824B1B6822F006021A60D02360
:1014B00099B24FF47A7302930123019307F1130356
:1014C0000093012375226C4803F01EFA034687F847
:1014D000163197F81631002B04D0764807F094FAAD
:1014E00000F078FD07F58C73A3F205131B78702BC1
:1014F00004D0714807F088FA00F06CFDD02399B24F
:1015000007F58C73A3F5847380221A704FF47A73F5
:1015100002930123019307F11003009301236B222F
:10152000554803F0DDF8012007F022F9D02399B2E5
:1015300007F58C73A3F5867308221A704FF47A733B
:1015400002930123019307F10C03009301236B2203
:10155000494803F0C5F8D02399B207F58C73A3F579
:10156000887318221A704FF47A730293012301933F
:1015700007F10803009301231B223F4803F0B0F852
:10158000D02399B24FF47A73029301230193FB1D88
:10159000009301231B22384803F0B6F907F58C733A
:1015A000A3F211131B78182B04D0444807F02CFA2F
:1015B00000F010FD424B00221A7097F81731002BF3
:1015C00006D1404805F068FA02E00A2007F0D0F89A
:1015D00002213D4802F02EFF0346012BF5D04FF4C7
:1015E000FA7007F0C5F8394B00221A60344B01221B
:1015F0001A70374807F0A2F91021364802F01AFF96
:1016000003461C462021334802F014FF034607F12D
:1016100014002246304907F0FFF907F11403184679
:10162000FFF7F4F9024607F1140313441E4A128827
:101630002A49184607F0F0F997F81731002B11D016
:10164000002000F003FE0021002000F07FFF0B4A85
:1016500007F11400012306CA00F02EFF064800F02F
:1016600019FEC9E71E4807F069F907F11403194686
:101670001C4807F063F9BFE7C40100200000002008
:10168000A49A000864020020B00200201802002082
:101690000000000048030020540400209C000020AB
:1016A000B49A00083C0100200C000020EC0000204F
:1016B00080010020C89A0008DC9A0008F89A000807
:1016C00050040020FC0200200014004864040020A4
:1016D000149B0008000400481C9B0008249B000881
:1016E0002C9B0008309B000880B596B000AF07F136
:1016F000300328220021184607F086FA07F11C0360
:1017000000221A605A609A60DA601A613B1D00225A
:101710001A605A609A60DA601A615A6102233B6368
:1017200001233B6410237B640223FB6400233B659D
:101730004FF460137B6507F13003184603F0DCFDBE
:101740000346002B01D000F045FC0F23FB61022370
:101750003B6200237B624FF48063BB620023FB6229
:1017600007F11C030221184604F004FE0346002B77
:1017700001D000F02FFC4FF485537B604FF4807351
:101780007B6100233B610023BB613B1D184603F0D6
:101790008DFC0346002B01D000F01CFC00BF583725
:1017A000BD4680BD80B58AB000AF07F11C030022A2
:1017B0001A605A609A603B1D00221A605A609A6053
:1017C000DA601A615A61434B4FF0A0421A60414BF4
:1017D00000225A603F4B00229A603E4B01221A6160
:1017E0003C4B01225A763B4B002283F82020394B98
:1017F0000022DA62374B01229A62364B0022DA600D
:10180000344B0422DA61334B012283F83020314B10
:1018100004225A612F4B00221A762E4B00225A6363
:101820002C4801F0AFFA0346002B01D000F0D2FBA8
:101830000023FB6107F11C031946264801F0CCFF89
:101840000346002B01D000F0C5FB01237B60012380
:10185000BB6000233B610423FB6000237B6100230A
:10186000BB613B1D19461B4801F0F8FC0346002BE9
:1018700001D000F0AFFB04237B600223BB603B1D63
:101880001946144801F0EAFC0346002B01D000F091
:10189000A1FB0C237B600323BB603B1D19460D4855
:1018A00001F0DCFC0346002B01D000F093FB0B237E
:1018B0007B600423BB603B1D1946064801F0CEFC4B
:1018C0000346002B01D000F085FB00BF2837BD4642
:1018D00080BD00BF9C00002080B586B000AF3B46B5
:1018E00000221A605A609A60DA601A615A61274BC6
:1018F000274A1A60254B00225A60244B00229A6026
:10190000224B00221A61214B01225A761F4B0022E2
:1019100083F820201D4B0022DA621C4B01229A62C0
:101920001A4B0022DA60194B0122DA61174B0122AF
:1019300083F83020154B04225A61144B00221A768A
:10194000124B00225A63114801F01CFA0346002B87
:1019500001D000F03FFB01233B6001237B600023AB
:10196000FB600423BB6000233B6100237B613B469B
:101970001946064801F072FC0346002B01D000F026
:1019800029FB00BF1837BD4680BD00BFEC0000201A
:101990000001005080B500AF1B4B1C4A1A601A4B67
:1019A00040F20B225A60184B00229A60164B01221B
:1019B000DA60154B00221A61134B00225A61124B58
:1019C00000229A61104B0022DA610F4B00221A624A
:1019D0000D4802F0F6FD0346002B01D000F0FAFAA4
:1019E0000021094802F056FD0346002B01D000F00B
:1019F000F1FA0021044802F098FD0346002B01D0C3
:101A000000F0E8FA00BF80BDC4010020005400408F
:101A100080B59AB000AF07F1580300221A605A60EF
:101A20009A60DA6007F14C0300221A605A609A60EB
:101A300007F1300300221A605A609A60DA601A6176
:101A40005A619A613B1D2C220021184607F0DCF8F0
:101A5000554B564A1A60544B1F225A60524B002273
:101A60009A60514B6322DA604F4B00221A614E4B51
:101A700000225A614C4B00229A614B4804F0B4FF9B
:101A80000346002B01D000F0A5FA4FF48053BB654C
:101A900007F158031946444805F010FD0346002B92
:101AA00001D000F097FA404805F052F80346002BA9
:101AB00001D000F08FFA0023FB6400233B65002374
:101AC0007B6507F14C031946374804F089FE03464D
:101AD000002B01D000F07EFA60233B6300237B6380
:101AE0000023BB630023FB6300233B6400237B6470
:101AF0000023BB6407F13003002219462A4805F091
:101B0000C9FB0346002B01D000F064FA07F1300353
:101B100004221946244805F0BDFB0346002B01D0E2
:101B200000F058FA07F13003082219461E4805F064
:101B3000B1FB0346002B01D000F04CFA07F1300353
:101B40000C221946184805F0A5FB0346002B01D0CE
:101B500000F040FA00237B600023BB600023FB60A1
:101B600000233B6100237B614FF40053BB610023E2
:101B7000FB6100233B624FF000737B620023BB627A
:101B80000023FB623B1D1946074804F097FE0346FD
:101B9000002B01D000F01EFA034800F007FF00BF41
:101BA0006837BD4680BD00BF18020020002C0140F0
:101BB00080B58CB000AF07F10C0324220021184639
:101BC00007F022F83B4600221A605A609A60214BC7
:101BD0004FF080421A601F4B00225A601D4B0022BA
:101BE0009A601C4B4FF6FF72DA601A4B00221A61A2
:101BF000184B00229A610123FB6000233B61012303
:101C00007B610023BB610023FB6100233B62012356
:101C10007B620023BB620023FB6207F10C031946C1
:101C20000C4805F0E3F80346002B01D000F0D2F990
:101C300000233B600023BB603B461946054804F087
:101C4000CFFD0346002B01D000F0C4F900BF3037B0
:101C5000BD4680BD6402002080B58CB000AF07F1A6
:101C60000C0324220021184606F0CEFF3B4600223A
:101C70001A605A609A60214B214A1A601F4B002259
:101C80005A601E4B00229A601C4B4FF6FF72DA60BE
:101C90001A4B00221A61194B00229A610123FB6042
:101CA00000233B6101237B610023BB610023FB61B7
:101CB00000233B6201237B620023BB620023FB62A3
:101CC00007F10C0319460D4805F090F80346002B68
:101CD00001D000F07FF900233B600023BB603B464E
:101CE0001946064804F07CFD0346002B01D000F0A5
:101CF00071F900BF3037BD4680BD00BFB002002083
:101D00000004004080B584B000AF3B1D00221A6083
:101D10005A609A60144B154A1A60134B3F225A605E
:101D2000114B00229A60104B40F2E732DA600E4B02
:101D300080229A610C4804F057FE0346002B01D024
:101D400000F048F900237B600023FB603B1D19462F
:101D5000054804F045FD0346002B01D000F03AF998
:101D600000BF1037BD4680BDFC02002000100040BF
:101D700080B592B000AF07F12C0300221A605A60C0
:101D80009A60DA601A615A619A613B462C220021FE
:101D9000184606F039FF314B314A1A602F4B632247
:101DA0005A602E4B00229A602C4B41F61F42DA609B
:101DB0002A4B00221A61294B00225A61274B00222C
:101DC0009A61264804F010FE0346002B01D000F073
:101DD00001F9224804F0BCFE0346002B01D000F0BC
:101DE000F9F86023FB6200233B6300237B6300233D
:101DF000BB630023FB6300233B6400237B6407F188
:101E00002C0300221946154805F044FA0346002B1E
:101E100001D000F0DFF800233B6000237B6000234B
:101E2000BB600023FB6000233B614FF400537B61E8
:101E30000023BB610023BB623B461946074804F000
:101E40003DFD0346002B01D000F0C4F8034800F02C
:101E5000ADFD00BF4837BD4680BD00BF4803002030
:101E60000044014080B500AF144B154A1A60134B73
:101E70004FF4E1325A60114B00229A600F4B00225E
:101E8000DA600E4B00221A610C4B0C225A610B4B8C
:101E900000229A61094B0022DA61084B00221A6283
:101EA000064B00225A62054805F0D7FF0346002B77
:101EB00001D000F08FF800BF80BD00BF9403002068
:101EC0000044004080B582B000AF104B5B690F4A00
:101ED00043F0010353610D4B5B6903F001037B6029
:101EE0007B68002200210B2001F065FF0B2001F030
:101EF0007EFF002200210C2001F05DFF0C2001F08C
:101F000076FF00BF0837BD4680BD00BF001002400D
:101F100080B588B000AF07F10C0300221A605A6048
:101F20009A60DA601A61284B5B69274A43F48003A0
:101F30005361254B5B6903F48003BB60BB68224B94
:101F40005B69214A43F4003353611F4B5B6903F41F
:101F500000337B607B681C4B5B691B4A43F4802326
:101F60005361194B5B6903F480233B603B68022398
:101F7000FB6000233B6100237B6107F10C031946E2
:101F8000124802F0E5F83023FB604FF404133B6184
:101F900000237B6107F10C0319460D4802F0D8F8C5
:101FA000002200210A2001F006FF0A2001F01FFF95
:101FB00000220021172001F0FEFE172001F017FF7C
:101FC00000BF2037BD4680BD00100240001400480D
:101FD0000004004880B400AF72B600BFFEE780B5D1
:101FE00086B004AF78600B46FB700A23029301238E
:101FF0000193FB1C0093012300227821786802F0F2
:102000006FFB034618460837BD4680BD80B584B0D7
:1020100000AF7860642006F0ABFB0023FB60AE21CC
:102020007868FFF7DCFF03461A46FB681344FB6041
:1020300020217868FFF7D3FF03461A46FB68134454
:10204000FB6010217868FFF7CAFF03461A46FB6859
:102050001344FB60B0217868FFF7C1FF03461A46BE
:10206000FB681344FB60C8217868FFF7B8FF03469C
:102070001A46FB681344FB6000217868FFF7AFFF46
:1020800003461A46FB681344FB6010217868FFF78B
:10209000A6FF03461A46FB681344FB60402178689C
:1020A000FFF79DFF03461A46FB681344FB6081213E
:1020B0007868FFF794FF03461A46FB681344FB60F9
:1020C000FF217868FFF78BFF03461A46FB6813442D
:1020D000FB60A1217868FFF782FF03461A46FB6880
:1020E0001344FB60A6217868FFF779FF03461A4680
:1020F000FB681344FB60A8217868FFF770FF034674
:102100001A46FB681344FB603F217868FFF767FFBE
:1021100003461A46FB681344FB60A4217868FFF766
:102120005EFF03461A46FB681344FB60D3217868C0
:10213000FFF755FF03461A46FB681344FB60002176
:102140007868FFF74CFF03461A46FB681344FB60B0
:10215000D5217868FFF743FF03461A46FB6813440E
:10216000FB60F0217868FFF73AFF03461A46FB68E8
:102170001344FB60D9217868FFF731FF03461A4604
:10218000FB681344FB6022217868FFF728FF0346B1
:102190001A46FB681344FB60DA217868FFF71FFFDB
:1021A00003461A46FB681344FB6012217868FFF768
:1021B00016FF03461A46FB681344FB60DB21786870
:1021C000FFF70DFF03461A46FB681344FB6020210E
:1021D0007868FFF704FF03461A46FB681344FB6068
:1021E0008D217868FFF7FBFE03461A46FB6813440F
:1021F000FB6014217868FFF7F2FE03461A46FB687D
:102200001344FB60AF217868FFF7E9FE03461A46E6
:10221000FB681344FB60FB68002B01D001230FE037
:10222000002000F013F8786800F034F8064B002224
:102230001A80054B00225A80034B01225A71002359
:1022400018461037BD4680BD7408002080B485B0A4
:1022500000AF0346FB710023FB600DE0FB79002B10
:1022600001D1002100E0FF21094AFB6813440A461E
:102270001A70FB680133FB60FB68B3F5806FEDD328
:1022800000BF00BF1437BD465DF8047B704700BF38
:102290007404002080B588B004AF78600023FB731D
:1022A00020E0FB7B503BDBB219467868FFF797FED6
:1022B00000217868FFF793FE10217868FFF78FFE02
:1022C000FB7BDB010B4A13446422029280220192C1
:1022D0000093012340227821786802F001FAFB7B09
:1022E0000133FB73FB7B072BDBD900BF00BF10372B
:1022F000BD4680BD7404002080B483B000AF0346A7
:10230000FB710B46BB7113467B7197F90730002BAD
:1023100048DBBB793F2B45D8254B1B79002B06D0DA
:102320007B79002B0CBF01230023DBB27B717B790F
:10233000012B1AD1FA79BB79DB08D8B20346DB014D
:1023400013441C4AD35C5AB2BB7903F00703012142
:1023500001FA03F35BB2134359B2FA790346DB0186
:102360001344C9B2134AD1541DE0FA79BB79DB0892
:10237000D8B20346DB0113440E4AD35C5AB2BB7990
:1023800003F00703012101FA03F35BB2DB435BB205
:10239000134059B2FA790346DB011344C9B2054A26
:1023A000D15400E000BF0C37BD465DF8047B704798
:1023B000740800207404002090B589B000AF044672
:1023C000381D80E806001A462346FB731346BB738C
:1023D000384B1B881A463B7913447F2B06DC354B60
:1023E0005B881A467B7913443F2B01DD00235DE0B7
:1023F0000023FB614CE0BA68FB7B203B797901FB51
:1024000003F31946FB690B445B0013441B887B6193
:102410000023BB6134E07A69BB6902FA03F303F479
:102420000043002B12D0234B1B88DAB2BB69DBB20E
:102430001344D8B21F4B5B88DAB2FB69DBB213449A
:10244000DBB2BA7B1946FFF757FF16E0194B1B8822
:10245000DAB2BB69DBB21344D8B2164B5B88DAB28E
:10246000FB69DBB21344D9B2BB7B002B0CBF012349
:102470000023DBB21A46FFF73FFFBB690133BB61A4
:102480003B791A46BB699342C5D3FB690133FB61B3
:102490007B791A46FB699342ADD3064B1A883B7988
:1024A0009BB213449AB2034B1A80FB7B1846243725
:1024B000BD4690BD7408002080B584B000AFF860C0
:1024C000381D80E80600FB7034E0FB681B780D2B9C
:1024D0000ED00D2B1BDC092B0ED00A2B17D11A4B5B
:1024E0005A887B799BB213449AB2174B5A801EE0EC
:1024F000154B00221A801AE0134B1A883B799BB2C5
:102500009B009BB213449AB20F4B1A800FE0FB68FA
:102510001878FB783A1D06CAFFF74EFF03461A46A5
:10252000FB681B789A4202D0FB681B7808E0FB68C6
:102530000133FB60FB681B78002BC6D1FB681B785E
:1025400018461037BD4680BD7408002080B483B0A3
:1025500000AF03460A46FB711346BB71FB799AB282
:10256000054B1A80BB799AB2034B5A8000BF0C37D7
:10257000BD465DF8047B70477408002080B483B0CA
:1025800000AF0F4B9B690E4A43F0010393610C4B64
:102590009B6903F001037B607B68094BDB69084A98
:1025A00043F08053D361064BDB6903F080533B60FB
:1025B0003B6800BF0C37BD465DF8047B704700BF29
:1025C0000010024080B58CB000AF786007F11C03AA
:1025D00000221A605A609A60DA601A617B681B6890
:1025E000B3F1A04F6ED1674B1B680133654A13608E
:1025F000644B1B68012B0BD1634B5B69624A43F050
:1026000080535361604B5B6903F08053BB61BB69CE
:102610005D4B5B695C4A43F4003353615A4B5B6921
:1026200003F400337B617B69574B5B69564A43F483
:1026300080235361544B5B6903F480233B613B6906
:102640000923FB6103233B6200237B6207F11C0328
:1026500019464FF0904001F07BFD0323FB610323FB
:102660003B6200237B6207F11C031946474801F0D7
:102670006FFD474B474A1A60454B00225A60444B56
:1026800000229A60424B8022DA60414B4FF4807204
:102690001A613F4B4FF480625A613D4B20229A6190
:1026A0003B4B0022DA613A4801F0BBFB0346002BAA
:1026B00001D0FFF78FFC7B68354A9A63344A7B6808
:1026C00053625AE07B681B68334A934255D12D4BC5
:1026D0001B6801332B4A13602A4B1B68012B0BD15B
:1026E000294B5B69284A43F080535361264B5B6951
:1026F00003F08053FB60FB68234B5B69224A43F481
:1027000000335361204B5B6903F40033BB60BB684B
:102710001023FB6103233B6200237B6207F11C0350
:1027200019464FF0904001F013FD1C4B1C4A1A60F3
:102730001A4B00225A60194B00229A60174B8022D4
:10274000DA60164B4FF480721A61144B4FF48062BA
:102750005A61124B20229A61104B0022DA610F4815
:1027600001F05FFB0346002B01D0FFF733FC7B68D1
:102770000A4A9A63094A7B68536200BF3037BD46F4
:1027800080BD00BF7C08002000100240000400480B
:102790003C010020080002400001005080010020A0
:1027A0001C00024080B58AB000AF786007F11403C6
:1027B00000221A605A609A60DA601A617B681B68AE
:1027C000174A934227D1174B5B69164A43F480237B
:1027D0005361144B5B6903F480233B613B69C02365
:1027E0007B611223BB610023FB6103233B62042353
:1027F0007B6207F1140319460B4801F0A9FC094B51
:10280000DB69084A43F40013D361064BDB6903F428
:102810000013FB60FB6800BF2837BD4680BD00BFCA
:1028200000540040001002400004004880B586B00B
:1028300000AF78607B681B681F4A93420CD11F4B26
:102840009B691E4A43F4006393611C4B9B6903F42C
:1028500000637B617B692AE07B681B68184A9342AE
:1028600014D1164BDB69154A43F01003D361134BA7
:10287000DB6903F010033B613B6900220021362035
:1028800001F099FA362001F0B2FA10E07B681B687B
:102890000C4A93420BD1094B9B69084A43F400331D
:1028A0009361064B9B6903F40033FB60FB6800BF38
:1028B0001837BD4680BD00BF002C0140001002400B
:1028C000001000400044014080B58CB000AF78603B
:1028D00007F11C0300221A605A609A60DA601A61DC
:1028E0007B681B68B3F1804F29D12E4BDB692D4AE1
:1028F00043F00103D3612B4BDB6903F00103BB61A0
:10290000BB69284B5B69274A43F400335361254B6D
:102910005B6903F400337B617B692223FB61022343
:102920003B6200237B620023BB620123FB6207F151
:102930001C0319464FF0904001F00AFC2DE07B6823
:102940001B68194A934228D1164BDB69154A43F09C
:102950000203D361134BDB6903F002033B613B6964
:10296000104B5B690F4A43F4003353610D4B5B69B5
:1029700003F40033FB60FB68C023FB6102233B626E
:1029800000237B620023BB620223FB6207F11C036E
:1029900019464FF0904001F0DBFB00BF3037BD46D9
:1029A00080BD00BF001002400004004080B58AB026
:1029B00000AF786007F1140300221A605A609A6031
:1029C000DA601A617B681B682D4A934230D12D4B27
:1029D0005B692C4A43F4003353612A4B5B6903F46F
:1029E00000333B613B694FF4E0637B610223BB61D1
:1029F0000023FB6100233B6206237B6207F1140383
:102A000019464FF0904001F0A3FB4FF400637B6147
:102A10000223BB610023FB6100233B620B237B622B
:102A200007F1140319464FF0904001F091FB22E0AA
:102A30007B681B68144A93421DD1124B5B69114A93
:102A400043F4003353610F4B5B6903F40033FB60C5
:102A5000FB684FF480537B610223BB610023FB6161
:102A600000233B6201237B6207F1140319464FF0F8
:102A7000904001F06DFB00BF2837BD4680BD00BF10
:102A8000002C0140001002400044014080B58AB093
:102A900000AF786007F1140300221A605A609A6050
:102AA000DA601A617B681B68184A934229D1184B77
:102AB000DB69174A43F40033D361154BDB6903F438
:102AC00000333B613B69124B5B69114A43F40033AD
:102AD00053610F4B5B6903F40033FB60FB6848F202
:102AE00004037B610223BB610023FB6103233B6280
:102AF00007237B6207F1140319464FF0904001F061
:102B000027FB00BF2837BD4680BD00BF0044004002
:102B10000010024080B400AFFEE780B400AFFEE7D3
:102B200080B400AFFEE780B400AFFEE780B400AF32
:102B3000FEE780B400AF00BFBD465DF8047B704780
:102B400080B400AF00BFBD465DF8047B704780B421
:102B500000AF00BFBD465DF8047B704780B500AF95
:102B600005F0E6FD00BF80BD80B500AF102001F08C
:102B700079FC00BF80BD000080B500AF024801F0C5
:102B8000F6F900BF80BD00BF3C01002080B500AF5A
:102B9000024801F0ECF900BF80BD00BF80010020B9
:102BA00080B500AF202001F05DFC00BF80BD0000BB
:102BB00080B500AF024804F04DFA00BF80BD00BFF1
:102BC000FC02002080B586B000AFF860B9607A6082
:102BD00000237B610AE0AFF300800146BB685A1C0A
:102BE000BA60CAB21A707B6901337B617A697B680B
:102BF0009A42F0DB7B6818461837BD4680BD80B529
:102C000086B000AFF860B9607A6000237B6109E0AC
:102C1000BB685A1CBA601B781846FDF751FF7B69E8
:102C200001337B617A697B689A42F1DB7B681846E5
:102C30001837BD4680BD80B483B000AF78604FF0D8
:102C4000FF3318460C37BD465DF8047B704780B4EF
:102C500083B000AF786039603B684FF400525A602F
:102C6000002318460C37BD465DF8047B704780B4DE
:102C700083B000AF7860012318460C37BD465DF87D
:102C8000047B704780B485B000AFF860B9607A60AB
:102C9000002318461437BD465DF8047B70470000DA
:102CA00080B586B000AF7860144A154BD31A7B61AB
:102CB0007B693B61134B1B68002B02D1114B124AFD
:102CC0001A60104B1A687B6813443A699A4207D21B
:102CD00005F0E8FF03460C221A604FF0FF3309E0CD
:102CE000084B1B68FB60074B1A687B681344054A56
:102CF0001360FB6818461837BD4680BD00300020C1
:102D00000004000080080020D809002080B400AF33
:102D1000064BD3F88830054A43F47003C2F8883074
:102D200000BFBD465DF8047B704700BF00ED00E0CA
:102D3000DFF834D0FFF7EAFF0C480D490D4A0023B5
:102D400002E0D458C4500433C4188C42F9D30A4A60
:102D50000A4C002301E013600432A242FBD305F0C9
:102D6000A7FFFEF725FBFEE7003000200000002053
:102D70008000002014A3000880000020D409002057
:102D8000FEE7000080B59AB000AF7860002387F8B6
:102D9000673000233B660023BB607B68002B01D1BA
:102DA000012372E17B681B69002B7B681B6C03F0BD
:102DB0001003002B76D17B681B6C002B52D17B68F3
:102DC00000225A647B680022DA647B6800229A64DD
:102DD0007B68002283F83C207868FFF7F3FB7B6870
:102DE0001B689B6803F08053002B3BD1786800F090
:102DF00083FE034687F867307B681B6C03F0100383
:102E0000002B2FD197F86730002B2BD17B681B6CE0
:102E100023F4885323F0020343F002027B681A6410
:102E20007B681B689A687B681B6822F040529A6036
:102E30007B681B689A687B681B6842F080529A60C6
:102E4000944B1B68944AA2FB03239A0C13469B00E5
:102E500013445B00BB6002E0BB68013BBB60BB6826
:102E6000002BF9D17B681B689B6803F08053002B13
:102E700007D07B681B689B6803F00053B3F1005FC9
:102E800010D17B681B6C23F0120343F010027B68A7
:102E90001A647B685B6C43F001027B685A6401230F
:102EA00087F867307B681B6C03F01003002B40F041
:102EB000DF8097F86730002B40F0DA807B681B6872
:102EC0009B6803F00403002B40F0D2807B681B6CEE
:102ED00023F4817343F002027B681A646F4BFB6535
:102EE0007B681B68B3F1A04F02D16D4BFB6002E021
:102EF0004FF0A043FB607B681B689B6803F00303F3
:102F0000012B08D17B681B681B6803F00103012BB0
:102F100001D1012300E00023002B1CD1FB68002B12
:102F200010D0FB689B6803F00303012B07D1FB68FB
:102F30001B6803F00103012B01D1012300E00023F2
:102F4000002B08D1FB6D9B6823F440327B685B68E3
:102F50001A43FB6D9A607B685B7E5B037A68526BF9
:102F6000012A02D04FF4805200E000221A437B680D
:102F7000DB681A437B689B6813433A6E13433B66D6
:102F80007B6893F82030012B1BD17B685B7E002B84
:102F900009D17B685B6A013B5A043B6E134343F4DF
:102FA00080333B660DE07B681B6C23F0220343F00B
:102FB00020027B681A647B685B6C43F001027B68CB
:102FC0005A647B689B6A012B07D07B689A6A7B688E
:102FD000DB6A13433A6E13433B667B681B689B684E
:102FE00003F00C03002B14D17B681B68DB687A6844
:102FF000126823F4804323F00203D3607B681B7EB6
:103000009A037B6893F830305B0013433A6E1343A6
:103010003B667B681B68DA68224B13407A6812684B
:10302000396E0B43D3607B681B69012B0CD17B6825
:103030001B681B6B23F00F017B68DB695A1E7B68E2
:103040001B680A431A6307E07B681B681A6B7B687E
:103050001B6822F00F021A637B6800225A647B68A7
:103060001B6C23F0030343F001027B681A640AE03F
:103070007B681B6C23F0120343F010027B681A6418
:10308000012387F8673097F8673018466837BD46E0
:1030900080BD00BF1800002083DE1B4300030050EA
:1030A0000001005007C0F0FF80B586B000AFF860A7
:1030B000B9607A600023FB75FB681B689B6803F0AE
:1030C0000403002B40F0B980FB6893F83C30012BDF
:1030D00001D10223B4E0FB68012283F83C205A4B63
:1030E0009B6803F01F03002B40F0A080F86800F0FD
:1030F0009FFC0346FB75FB7D002B40F09280FB6834
:103100001B6C23F4706323F0010343F48072FB68AB
:103110001A644D4B9B6803F01F03002B04D0FB681F
:103120001B68B3F1A04F15D1FB681B6C23F4801210
:10313000FB681A64FB681B68DB6803F00073002BF4
:1031400027D0FB681B6C23F4405343F48052FB6888
:103150001A641EE0FB681B6C43F48012FB681A645F
:10316000FB681B68B3F1A04F04D0FB681B68374AAB
:1031700093420ED14FF0A043DB6803F00073002BA5
:1031800007D0FB681B6C23F4405343F48052FB6868
:103190001A64FB681B6C03F48053B3F5805F06D19F
:1031A000FB685B6C23F00602FB685A6402E0FB6874
:1031B00000225A64FB68002283F83C20FB689B6B6A
:1031C000234A9A62FB689B6B224ADA62FB689B6B1C
:1031D000214A1A63FB681B681C221A60FB681B6883
:1031E0005A68FB681B6842F010025A60FB681B6853
:1031F000DA68FB681B6842F00102DA60FB68986BD2
:10320000FB681B6840331946BA687B6800F050FEC3
:10321000FB681B689A68FB681B6842F004029A60AE
:103220000DE0FB68002283F83C2008E00123FB75D9
:10323000FB68002283F83C2001E00223FB75FB7D44
:1032400018461837BD4680BD0003005000010050ED
:1032500065390008DF390008FB39000880B49BB0ED
:1032600000AF78603960002387F867300023BB60C7
:103270007B6893F83C30012B01D10223A1E27B68EB
:10328000012283F83C207B681B689B6803F00403E1
:10329000002B40F085823B685B68042B1CD87B6860
:1032A0001B68196B3B685A6813465B0013445B004C
:1032B0001A461F239340DB4319403B6818683B685C
:1032C0005A6813465B0013445B0000FA03F27B6804
:1032D0001B680A431A6363E03B685B68092B1ED8CE
:1032E0007B681B68596B3B685A6813465B00134444
:1032F0005B001E3B1F2202FA03F3DB4319403B68CD
:1033000018683B685A6813465B0013445B001E3B19
:1033100000FA03F27B681B680A435A6340E03B688B
:103320005B680E2B1ED87B681B68996B3B685A68DC
:1033300013465B0013445B003C3B1F2202FA03F37D
:10334000DB4319403B6818683B685A6813465B00CA
:1033500013445B003C3B00FA03F27B681B680A43A2
:103360009A631DE07B681B68D96B3B685A681346FB
:103370005B0013445B005A3B1F2202FA03F3DB435A
:1033800019403B6818683B685A6813465B00134451
:103390005B005A3B00FA03F27B681B680A43DA635E
:1033A0007B681B689B6803F00C03002B40F0E580F2
:1033B0003B681B68092B1CD97B681B6899693B68B3
:1033C0001A6813465B0013441E3B072202FA03F3FC
:1033D000DB4319403B6898683B681A6813465B00FA
:1033E00013441E3B00FA03F27B681B680A439A6190
:1033F00019E07B681B6859693B681A6813465B00D3
:103400001344072202FA03F3DB4319403B68986830
:103410003B681A6813465B00134400FA03F27B68AA
:103420001B680A435A613B685A697B681B68DB6802
:10343000DB0803F003035B0002FA03F33B663B681F
:103440001B69013B032B4FD801A252F823F000BFA8
:103450006134000883340008A5340008C73400082C
:103460007B681B681A6E9C4B13403A681268910681
:103470003A6E0A431A437B681B6842F000421A66A0
:103480007BE07B681B685A6E934B13403A68126866
:1034900091063A6E0A431A437B681B6842F0004269
:1034A0005A666AE07B681B689A6E8B4B13403A68D9
:1034B000126891063A6E0A431A437B681B6842F011
:1034C00000429A6659E07B681B68DA6E824B1340B3
:1034D0003A68126891063A6E0A431A437B681B6881
:1034E00042F00042DA6648E07B681B681B6E03F01E
:1034F000F8423B681B689B069A4207D17B681B68B1
:103500001A6E7B681B6822F000421A667B681B6893
:103510005B6E03F0F8423B681B689B069A4207D13A
:103520007B681B685A6E7B681B6822F000425A66F3
:103530007B681B689B6E03F0F8423B681B689B0628
:103540009A4207D17B681B689A6E7B681B6822F0E1
:1035500000429A667B681B68DB6E03F0F8423B68AA
:103560001B689B069A4207D17B681B68DA6E7B68F2
:103570001B6822F00042DA6600BF7B681B689B680C
:1035800003F00303012B08D17B681B681B6803F061
:103590000103012B01D1012300E00023002B40F0A7
:1035A0000A813B68DB68012B0FD07B681B68D3F86E
:1035B000B0103B681B68012202FA03F3DA437B6810
:1035C0001B680A40C3F8B02049E07B681B68D3F849
:1035D000B0103B681B6801229A407B681B680A4355
:1035E000C3F8B0203B681B68092B1CD97B681B689B
:1035F00099693B681A6813465B0013441B3B07221A
:1036000002FA03F3DB4319403B6898683B681A6889
:1036100013465B0013441B3B00FA03F27B681B68F4
:103620000A439A611BE07B681B6859693B681B6809
:103630005A1C13465B001344072202FA03F3DB43D0
:1036400019403B6898683B681B685A1C13465B002E
:10365000134400FA03F27B681B680A435A611F4B4C
:10366000FB653B681B68102B05D1FB6D9B6803F461
:103670000003002B15D03B681B68112B05D1FB6D97
:103680009B6803F08073002B0BD03B681B68122BE8
:1036900040F09180FB6D9B6803F48003002B40F0A9
:1036A0008A807B681B68B3F1A04F02D10C4BFB6092
:1036B00002E04FF0A043FB607B681B689B6803F04F
:1036C0000303012B0ED17B681B681B6803F0010309
:1036D000012B07D1012306E000F0FF830003005017
:1036E000000100500023002B50D1FB68002B10D0AC
:1036F000FB689B6803F00303012B07D1FB681B6881
:1037000003F00103012B01D1012300E00023002B72
:103710003CD13B681B68102B1DD17B681B68B3F143
:10372000A04F18D1FB6D9B6843F40002FB6D9A60BB
:10373000274B1B68274AA2FB03239A0C13469B00C6
:1037400013445B00BB6002E0BB68013BBB60BB682D
:10375000002BF9D12EE03B681B68112B0BD17B6845
:103760001B68B3F1A04F06D1FB6D9B6843F08072DC
:10377000FB6D9A601EE03B681B68122B1AD1FB6D33
:103780009B6843F48002FB6D9A6013E07B681B6CBE
:1037900043F020027B681A64012387F867300AE04F
:1037A0007B681B6C43F020027B681A64012387F856
:1037B000673000E000BF7B68002283F83C2097F868
:1037C000673018466C37BD465DF8047B704700BF14
:1037D0001800002083DE1B4380B499B000AF7860EE
:1037E0003960002387F85F307B681B68B3F1A04F16
:1037F00002D15A4BBB6002E04FF0A043BB60BB68F4
:10380000002B01D10123A2E07B6893F83C30012B0F
:1038100001D102239BE07B68012283F83C207B6876
:103820001B689B6803F00403002B7FD1BB689B6877
:1038300003F00403002B79D1494BBB653B681B683F
:10384000002B40D0BB6D9B6823F460423B685968F5
:103850007B6893F830305B030B431A43BB6D9A606F
:103860007B681B689B6803F00303012B08D17B680E
:103870001B681B6803F00103012B01D1012300E049
:103880000023002B5CD1BB689B6803F00303012B72
:1038900007D1BB681B6803F00103012B01D1012391
:1038A00000E00023002B4BD1BB6D9B6823F47163B8
:1038B00023F00F033A6811683A6892680A431A4382
:1038C000BB6D9A603CE0BB6D9B6823F46042BB6DAE
:1038D0009A607B681B689B6803F00303012B08D187
:1038E0007B681B681B6803F00103012B01D10123D6
:1038F00000E00023002B23D1BB689B6803F0030387
:10390000012B07D1BB681B6803F00103012B01D118
:10391000012300E00023002B12D1BB6D9B6823F430
:10392000716323F00F03BA6D936009E07B681B6C31
:1039300043F020027B681A64012387F85F3000E0BF
:1039400000BF7B68002283F83C2097F85F30184660
:103950006437BD465DF8047B704700BF000100502E
:103960000003005080B584B000AF78607B685B6A6C
:10397000FB60FB681B6C03F05003002B26D1FB6837
:103980001B6C43F40072FB681A64FB681B68DB68FD
:1039900003F44063002B15D1FB685B7E002B11D133
:1039A000FB681B6C23F48072FB681A64FB681B6C59
:1039B00003F48053002B05D1FB681B6C43F001021C
:1039C000FB681A64F86800F0FDF804E0FB689B6B84
:1039D0001B6B7868984700BF1037BD4680BD80B527
:1039E00084B000AF78607B685B6AFB60F86800F0C9
:1039F000F3F800BF1037BD4680BD80B584B000AF7E
:103A000078607B685B6AFB60FB681B6C43F040027C
:103A1000FB681A64FB685B6C43F00402FB685A6441
:103A2000F86800F0E3F800BF1037BD4680BD000025
:103A300080B584B000AF78600023FB607B681B68B2
:103A40009B6803F00303012B08D17B681B681B688C
:103A500003F00103012B01D1012300E00023002B1F
:103A600043D17B681B689A68224B1340002B0DD012
:103A70007B681B6C43F010027B681A647B685B6C8C
:103A800043F001027B685A6401232FE07B681B68C6
:103A90009A687B681B6842F001029A6004F05CFE41
:103AA000F8601BE004F058FE0246FB68D31A022BB4
:103AB00014D97B681B681B6803F00103012B0DD030
:103AC0007B681B6C43F010027B681A647B685B6C3C
:103AD00043F001027B685A64012307E07B681B689E
:103AE0001B6803F00103012BDCD1002318461037BB
:103AF000BD4680BD3F00008080B584B000AF7860D7
:103B00000023FB607B681B689B6803F00303012BA9
:103B100008D17B681B681B6803F00103012B01D1EE
:103B2000012300E00023002B47D07B681B689B68C3
:103B300003F00D03012B0FD17B681B689A687B682B
:103B40001B6842F002029A607B681B6803221A60BD
:103B500004F002FEF86029E07B681B6C43F0100261
:103B60007B681A647B685B6C43F001027B685A6473
:103B7000012323E004F0F0FD0246FB68D31A022B78
:103B800014D97B681B689B6803F00103012B0DD1DE
:103B90007B681B6C43F010027B681A647B685B6C6B
:103BA00043F001027B685A64012307E07B681B68CD
:103BB0009B6803F00103012BDCD00023184610376B
:103BC000BD4680BD80B483B000AF786000BF0C37C5
:103BD000BD465DF8047B704780B483B000AF786069
:103BE00000BF0C37BD465DF8047B704780B483B0DE
:103BF00000AF786000BF0C37BD465DF8047B7047AE
:103C000080B485B000AF78607B6803F00703FB6089
:103C10000C4BDB68BB60BA684FF6FF031340BB6018
:103C2000FB681A02BB68134343F0BF6343F40033DD
:103C3000BB60044ABB68D36000BF1437BD465DF863
:103C4000047B704700ED00E080B400AF044BDB68FC
:103C50001B0A03F007031846BD465DF8047B704756
:103C600000ED00E080B483B000AF0346FB7197F92C
:103C70000730002B0BDBFB7903F01F02074997F994
:103C800007305B09012000FA02F241F8232000BF4F
:103C90000C37BD465DF8047B704700BF00E100E0D3
:103CA00080B483B000AF03463960FB7197F90730E9
:103CB000002B0ADB3B68DAB20C4997F90730120196
:103CC000D2B20B4483F800230AE03B68DAB2084919
:103CD000FB7903F00F03043B1201D2B20B441A76B6
:103CE00000BF0C37BD465DF8047B704700E100E083
:103CF00000ED00E080B489B000AFF860B9607A6090
:103D0000FB6803F00703FB61FB69C3F10703042BA6
:103D100028BF0423BB61FB690433062B02D9FB696E
:103D2000033B00E000237B614FF0FF32BB6902FAE6
:103D300003F3DA43BB681A407B699A404FF0FF31C6
:103D40007B6901FA03F3D9437B680B4013431846A0
:103D50002437BD465DF8047B7047000080B582B013
:103D600000AF78607B68013BB3F1807F01D3012312
:103D70000FE00A4A7B68013B53600F214FF0FF3090
:103D8000FFF78EFF054B00229A60044B07221A6052
:103D9000002318460837BD4680BD00BF10E000E094
:103DA00080B582B000AF78607868FFF729FF00BF68
:103DB0000837BD4680BD80B586B000AF0346B96008
:103DC0007A60FB7300237B61FFF73EFF78617A68BE
:103DD000B9687869FFF78EFF024697F90F301146F0
:103DE0001846FFF75DFF00BF1837BD4680BD80B5A0
:103DF00082B000AF0346FB7197F907301846FFF712
:103E000031FF00BF0837BD4680BD80B582B000AF2E
:103E100078607868FFF7A2FF034618460837BD466A
:103E200080BD80B584B000AF78600023FB607B6804
:103E3000002B01D1012337E07B68022283F8212087
:103E40007B681B681B68FB60FB6823F47F5323F0CF
:103E50003003FB607B685A687B689B681A437B6809
:103E6000DB681A437B681B691A437B685B691A43EA
:103E70007B689B691A437B68DB691343FA681343C9
:103E8000FB607B681B68FA681A60786800F040F98C
:103E90007B6800229A637B68012283F821207B687B
:103EA000002283F82020002318461037BD4680BD2D
:103EB00080B586B000AFF860B9607A603B600023DF
:103EC000FB75FB6893F82030012B01D102234AE0F7
:103ED000FB68012283F82020FB6893F82130012B36
:103EE0003AD1FB68022283F82120FB6800229A6302
:103EF000FB681B681A68FB681B6822F001021A60E5
:103F00003B687A68B968F86800F0D4F8FB68DB6A47
:103F1000002B08D0FB681B681A68FB681B6842F01E
:103F20000E021A600FE0FB681B681A68FB681B68CA
:103F300042F00A021A60FB681B681A68FB681B687B
:103F400022F004021A60FB681B681A68FB681B6891
:103F500042F001021A6005E0FB68002283F820208D
:103F60000223FB75FB7D18461837BD4680BD80B522
:103F700084B000AF78607B68DB6B1B68FB607B689C
:103F80001B681B68BB607B681B6C04229A40FB6843
:103F90001340002B24D0BB6803F00403002B1FD078
:103FA0007B681B681B6803F02003002B07D17B682C
:103FB0001B681A687B681B6822F004021A607B6821
:103FC0001A6C7B68DB6B042101FA02F25A607B6891
:103FD000DB6A002B6AD07B68DB6A7868984765E00B
:103FE0007B681B6C02229A40FB681340002B2CD08C
:103FF000BB6803F00203002B27D07B681B681B689B
:1040000003F02003002B0BD17B681B681A687B68C8
:104010001B6822F00A021A607B68012283F82120C3
:104020007B681A6C7B68DB6B022101FA02F25A6032
:104030007B68002283F820207B689B6A002B35D0A8
:104040007B689B6A7868984730E07B681B6C082225
:104050009A40FB681340002B28D0BB6803F008038C
:10406000002B23D07B681B681A687B681B6822F0D2
:104070000E021A607B681A6C7B68DB6B012101FA07
:1040800002F25A607B6801229A637B68012283F8FE
:1040900021207B68002283F820207B681B6B002B8B
:1040A00004D07B681B6B78689847FFE700BF103728
:1040B000BD4680BD80B485B000AFF860B9607A605D
:1040C0003B60FB681A6CFB68DB6B012101FA02F2B2
:1040D0005A60FB681B683A685A60FB685B68102B83
:1040E00008D1FB681B687A689A60FB681B68BA682D
:1040F000DA6007E0FB681B68BA689A60FB681B68B7
:104100007A68DA6000BF1437BD465DF8047B7047FB
:1041100080B483B000AF78607B681B681A46094B97
:104120001344094AA2FB03231B099A007B681A6403
:104130007B68064ADA6300BF0C37BD465DF8047B36
:10414000704700BFF8FFFDBFCDCCCCCC00000240D3
:1041500080B487B000AF7860396000237B614EE1A6
:104160003B681A6801217B6901FA03F31340FB6085
:10417000FB68002B00F040813B685B6803F00303A1
:10418000012B05D03B685B6803F00303022B30D1A1
:104190007B689B683B617B695B00032202FA03F347
:1041A000DB433A6913403B613B68DA687B695B003B
:1041B00002FA03F33A6913433B617B683A699A60F8
:1041C0007B685B683B6101227B6902FA03F3DB4396
:1041D0003A6913403B613B685B681B0903F00102CD
:1041E0007B6902FA03F33A6913433B617B683A69DE
:1041F0005A603B685B6803F00303032B17D07B68AE
:10420000DB683B617B695B00032202FA03F3DB435B
:104210003A6913403B613B689A687B695B0002FA2C
:1042200003F33A6913433B617B683A69DA603B68A0
:104230005B6803F00303022B23D17B69DA087B68F8
:10424000083253F822303B617B6903F007039B007F
:104250000F2202FA03F3DB433A6913403B613B68E8
:104260001A697B6903F007039B0002FA03F33A69BA
:1042700013433B617B69DA087B680832396943F88C
:1042800022107B681B683B617B695B00032202FA9A
:1042900003F3DB433A6913403B613B685B6803F01F
:1042A00003027B695B0002FA03F33A6913433B6143
:1042B0007B683A691A603B685B6803F44033002B03
:1042C00000F09A80554B9B69544A43F00103936177
:1042D000524B9B6903F00103BB60BB68504A7B698A
:1042E0009B08023352F823303B617B6903F00303E0
:1042F0009B000F2202FA03F3DB433A6913403B6150
:104300007B68B3F1904F13D07B68464A93420DD03F
:104310007B68454A934207D07B68444A934201D167
:10432000032306E0052304E0022302E0012300E06A
:1043300000237A6902F00302920093403A69134322
:104340003B6137497B699B0802333A6941F8232076
:10435000374B9B683B61FB68DB433A6913403B6129
:104360003B685B6803F48013002B03D03A69FB6859
:1043700013433B612E4A3B6993602D4BDB683B61E5
:10438000FB68DB433A6913403B613B685B6803F4BD
:104390000013002B03D03A69FB6813433B61244AA6
:1043A0003B69D360224B5B683B61FB68DB433A6946
:1043B00013403B613B685B6803F40033002B03D080
:1043C0003A69FB6813433B61194A3B695360184BD8
:1043D0001B683B61FB68DB433A6913403B613B6808
:1043E0005B6803F48033002B03D03A69FB68134306
:1043F0003B610F4A3B6913607B6901337B613B681A
:104400001A687B6922FA03F3002B7FF4A9AE00BF80
:1044100000BF1C37BD465DF8047B704700100240AA
:10442000000001400004004800080048000C00485B
:104430000004014080B485B000AF78600B467B80FB
:104440007B681A697B881340002B02D00123FB7321
:1044500001E00023FB73FB7B18461437BD465DF873
:10446000047B704780B582B000AF0346FB80084BE9
:104470005A69FB881340002B06D0054AFB8853611C
:10448000FB881846FCF74CFF00BF0837BD4680BDCF
:104490000004014080B483B000AF786039607B686D
:1044A00093F84130DBB2202B38D17B6893F8403051
:1044B000012B01D1022332E07B68012283F84020E6
:1044C0007B68242283F841207B681B681A687B681C
:1044D0001B6822F001021A607B681B681A687B68FF
:1044E0001B6822F480521A607B681B6819687B681D
:1044F0001B683A680A431A607B681B681A687B6805
:104500001B6842F001021A607B68202283F8412078
:104510007B68002283F84020002300E00223184635
:104520000C37BD465DF8047B704780B485B000AFA2
:10453000786039607B6893F84130DBB2202B39D149
:104540007B6893F84030012B01D1022333E07B6874
:10455000012283F840207B68242283F841207B6875
:104560001B681A687B681B6822F001021A607B686E
:104570001B681B68FB60FB6823F47063FB603B688F
:104580001B02FA681343FB607B681B68FA681A60B9
:104590007B681B681A687B681B6842F001021A601E
:1045A0007B68202283F841207B68002283F840202A
:1045B000002300E0022318461437BD465DF8047B53
:1045C000704780B582B000AF78607B68002B01D166
:1045D000012381E07B6893F84130DBB2002B06D1E8
:1045E0007B68002283F840207868FEF7DBF87B6860
:1045F000242283F841207B681B681A687B681B684B
:1046000022F001021A607B685A687B681B6822F0FE
:1046100070621A617B681B689A687B681B6822F469
:1046200000429A607B68DB68012B07D17B689A683F
:104630007B681B6842F400429A6006E07B689A68D7
:104640007B681B6842F404429A607B68DB68022B3B
:1046500004D17B681B684FF400625A607B681B685A
:104660005B687A68126843F0007343F40043536058
:104670007B681B68DA687B681B6822F40042DA609A
:104680007B681A697B685B6942EA03017B689B6906
:104690001A027B681B680A43DA607B68D9697B6809
:1046A0001A6A7B681B680A431A607B681B681A6871
:1046B0007B681B6842F001021A607B6800225A6422
:1046C0007B68202283F841207B6800221A637B6884
:1046D000002283F84220002318460837BD4680BDDB
:1046E00080B588B002AFF860084611461A46034606
:1046F0007B810B463B811346FB80FB6893F841307E
:10470000DBB2202B40F0F9803B6A002B02D0BB8C3F
:10471000002B05D1FB684FF400725A640123EDE0D1
:10472000FB6893F84030012B01D10223E6E0FB68DF
:10473000012283F8402004F00FF878617B69009330
:10474000192301224FF40041F86800F0C3FA034630
:10475000002B01D00123D1E0FB68212283F8412006
:10476000FB68402283F84220FB6800225A64FB6801
:104770003A6A5A62FB68BA8C5A85FB6800225A630F
:10478000F8883A8979897B690193BB6A009303466B
:10479000F86800F0D3F90346002B05D0FB6800222F
:1047A00083F840200123A9E0FB685B8D9BB2FF2BBF
:1047B0000ED9FB68FF221A85FB681B8DDAB2798956
:1047C000002300934FF08073F86800F03DFC0FE089
:1047D000FB685B8D9AB2FB681A85FB681B8DDAB2A9
:1047E0007989002300934FF00073F86800F02CFCE7
:1047F0007A69B96AF86800F0BCFA0346002B01D068
:1048000001237BE0FB685B6A1A78FB681B689A628D
:10481000FB685B6A5A1CFB685A62FB685B8D9BB243
:10482000013B9AB2FB685A85FB681B8D013B9AB22B
:10483000FB681A85FB685B8D9BB2002B34D0FB684C
:104840001B8D002B30D17B690093BB6A0022802135
:10485000F86800F03FFA0346002B01D001234DE039
:10486000FB685B8D9BB2FF2B0ED9FB68FF221A857C
:10487000FB681B8DDAB27989002300934FF08073B7
:10488000F86800F0E1FB0FE0FB685B8D9AB2FB6813
:104890001A85FB681B8DDAB27989002300934FF0EB
:1048A0000073F86800F0D0FBFB685B8D9BB2002BB7
:1048B0009ED17A69B96AF86800F0A2FA0346002B23
:1048C00001D001231AE0FB681B682022DA61FB6833
:1048D0001B685968FB681A680A4B0B405360FB68F9
:1048E000202283F84120FB68002283F84220FB68E5
:1048F000002283F84020002300E0022318461837E6
:10490000BD4680BD00E800FE80B588B002AFF8600B
:10491000084611461A4603467B810B463B811346E7
:10492000FB80FB6893F84130DBB2202B40F0FD8028
:104930003B6A002B02D0BB8C002B05D1FB684FF4E7
:1049400000725A640123F1E0FB6893F84030012BB8
:1049500001D10223EAE0FB68012283F8402003F042
:10496000FBFE78617B690093192301224FF400411B
:10497000F86800F0AFF90346002B01D00123D5E021
:10498000FB68222283F84120FB68402283F8422002
:10499000FB6800225A64FB683A6A5A62FB68BA8C68
:1049A0005A85FB6800225A63F8883A8979897B69BD
:1049B0000193BB6A00930346F86800F013F90346BD
:1049C000002B05D0FB68002283F840200123ADE0D6
:1049D000FB685B8D9BB2FF2B0ED9FB68FF221A850B
:1049E000FB681B8DDAB27989524B00934FF08073CC
:1049F000F86800F029FB0FE0FB685B8D9AB2FB685A
:104A00001A85FB681B8DDAB279894A4B00934FF007
:104A10000073F86800F018FB7B690093BB6A002202
:104A20000421F86800F056F90346002B01D0012359
:104A30007CE0FB681B685A6AFB685B6AD2B21A703A
:104A4000FB685B6A5A1CFB685A62FB681B8D013B62
:104A50009AB2FB681A85FB685B8D9BB2013B9AB2E8
:104A6000FB685A85FB685B8D9BB2002B34D0FB68DA
:104A70001B8D002B30D17B690093BB6A0022802103
:104A8000F86800F027F90346002B01D001234DE020
:104A9000FB685B8D9BB2FF2B0ED9FB68FF221A854A
:104AA000FB681B8DDAB27989002300934FF0807385
:104AB000F86800F0C9FA0FE0FB685B8D9AB2FB68FA
:104AC0001A85FB681B8DDAB27989002300934FF0B9
:104AD0000073F86800F0B8FAFB685B8D9BB2002B9E
:104AE0009AD17A69B96AF86800F08AF90346002B0E
:104AF00001D001231AE0FB681B682022DA61FB6801
:104B00001B685968FB681A680B4B0B405360FB68C5
:104B1000202283F84120FB68002283F84220FB68B2
:104B2000002283F84020002300E0022318461837B3
:104B3000BD4680BD0024008000E800FE80B586B040
:104B400002AFF860084611461A4603467B810B46C1
:104B50003B811346FB80FB88DAB27989204B0093B6
:104B60004FF08073F86800F06FFAFA69B969F86875
:104B700000F0FFF80346002B01D001232CE0FB8856
:104B8000012B05D13B89DAB2FB681B689A6215E0FC
:104B90003B891B0A9BB2DAB2FB681B689A62FA690E
:104BA000B969F86800F0E5F80346002B01D001234D
:104BB00012E03B89DAB2FB681B689A62FB690093DA
:104BC000BB6900228021F86800F084F80346002BBE
:104BD00001D0012300E0002318461037BD4680BDF8
:104BE0000020008080B586B002AFF860084611460C
:104BF0001A4603467B810B463B811346FB80FB88AC
:104C0000DAB27989204B00930023F86800F01CFA8F
:104C1000FA69B969F86800F0ACF80346002B01D0D6
:104C200001232CE0FB88012B05D13B89DAB2FB681C
:104C30001B689A6215E03B891B0A9BB2DAB2FB68DB
:104C40001B689A62FA69B969F86800F092F803463D
:104C5000002B01D0012312E03B89DAB2FB681B680C
:104C60009A62FB690093BB6900224021F86800F05A
:104C700031F80346002B01D0012300E00023184641
:104C80001037BD4680BD00BF0020008080B483B0D7
:104C900000AF78607B681B689B6903F00203022BFE
:104CA00003D17B681B6800229A627B681B689B6942
:104CB00003F00103012B07D07B681B689A697B68AE
:104CC0001B6842F001029A6100BF0C37BD465DF8D7
:104CD000047B704780B584B000AFF860B9603B607A
:104CE0001346FB7131E03B68B3F1FF3F2DD003F079
:104CF00033FD0246BB69D31A3A689A4202D33B6835
:104D0000002B22D1FB681B689A69BB681340BA6804
:104D10009A420CBF01230023DBB21A46FB799A4268
:104D200013D1FB685B6C43F02002FB685A64FB689C
:104D3000202283F84120FB68002283F84220FB6890
:104D4000002283F8402001230FE0FB681B689A696A
:104D5000BB681340BA689A420CBF01230023DBB240
:104D60001A46FB799A42BED0002318461037BD463A
:104D700080BD80B584B000AFF860B9607A6033E080
:104D80007A68B968F86800F07FF80346002B01D014
:104D9000012331E0BB68B3F1FF3F25D003F0DCFC19
:104DA00002467B68D31ABA689A4202D3BB68002BCA
:104DB0001AD1FB681B689B6903F00203022B13D016
:104DC000FB685B6C43F02002FB685A64FB6820229E
:104DD00083F84120FB68002283F84220FB68002210
:104DE00083F84020012307E0FB681B689B6903F000
:104DF0000203022BC4D1002318461037BD4680BDE4
:104E000080B584B000AFF860B9607A602FE07A684E
:104E1000B968F86800F038F80346002B01D0012388
:104E20002DE003F099FC02467B68D31ABA689A42D7
:104E300002D3BB68002B1AD1FB681B689B6903F087
:104E40002003202B13D0FB685B6C43F02002FB682F
:104E50005A64FB68202283F84120FB68002283F813
:104E60004220FB68002283F84020012307E0FB6812
:104E70001B689B6903F02003202BC8D10023184630
:104E80001037BD4680BD000080B58AB000AFF86025
:104E9000B9607A60002387F82730FB681B689B693C
:104EA000BB6100233B627B68FB61BB6903F01003BD
:104EB000002B68D0FB681B681022DA6149E0BB68F0
:104EC000B3F1FF3F45D003F047FC0246FB69D31A1C
:104ED000BA689A4202D3BB68002B3AD1FB681B68C0
:104EE0005B6803F480437B61FB6893F84230FB749A
:104EF000FB681B689B6903F40043B3F5004F21D1A5
:104F00007B69B3F5804F1DD0FB7C202B1AD0FB684A
:104F10001B685A68FB681B6842F480425A6003F0C1
:104F20001BFCF8610EE003F017FC0246FB69D31A84
:104F3000192B07D93B6A43F020033B62012387F812
:104F4000273006E0FB681B689B6903F02003202BD9
:104F5000E9D1FB681B689B6903F02003202B03D079
:104F600097F82730002BAAD097F82730002B03D1D1
:104F7000FB681B682022DA613B6A43F004033B6252
:104F8000012387F82730FB681B689B69BB61BB69FD
:104F900003F48073002B0BD03B6A43F001033B62A8
:104FA000FB681B684FF48072DA61012387F82730B1
:104FB000BB6903F48063002B0BD03B6A43F008030A
:104FC0003B62FB681B684FF48062DA61012387F85B
:104FD0002730BB6903F40073002B0BD03B6A43F00E
:104FE00002033B62FB681B684FF40072DA61012325
:104FF00087F8273097F82730002B1CD0F868FFF788
:1050000045FEFB681B685968FB681A680D4B0B402E
:105010005360FB685A6C3B6A1A43FB685A64FB682E
:10502000202283F84120FB68002283F84220FB689D
:10503000002283F8402097F8273018462837BD46CD
:1050400080BD00BF00E800FE80B487B000AFF8600C
:105050007B600B467B8113467B727B89C3F309021D
:105060007B7A1B0403F47F031A437B681A433B6A71
:10507000134323F000437B61FB681B685A683B6A5B
:105080005B0D03F48061084B0B43DB4302EA030131
:10509000FB681B687A690A435A6000BF1C37BD462B
:1050A0005DF8047B704700BFFF63FF0380B592B0DB
:1050B00000AF786000233B640023FB63002387F884
:1050C00047307B681B6803F48033002B00F0CD80F1
:1050D000864BDB6903F08053002B0ED1834BDB69D9
:1050E000824A43F08053D361804BDB6903F08053E5
:1050F000BB60BB68012387F847307D4B1B6803F416
:105100008073002B18D17A4B1B68794A43F4807363
:10511000136003F021FB386408E003F01DFB024636
:105120003B6CD31A642B01D90323DBE0704B1B6863
:1051300003F48073002BF0D06C4B1B6A03F44073B4
:10514000FB63FB6B002B7DD07B685B6803F44073D3
:10515000FA6B9A4276D0654B1B6A23F44073FB636B
:105160004FF480333B633B6B93FAA3F3FB62FB6A20
:10517000B3FA83F3DBB21A465E4B13449B001A4624
:10518000012313604FF48033BB63BB6B93FAA3F32B
:105190007B637B6BB3FA83F3DBB21A46554B134444
:1051A0009B001A4600231360504AFB6B1362FB6B93
:1051B00003F00103002B45D003F0CEFA38640AE077
:1051C00003F0CAFA02463B6CD31A41F2883293428A
:1051D00001D9032386E00223BB62BB6A93FAA3F3DF
:1051E0007B6202233B623B6A93FAA3F3FB61FB6998
:1051F000B3FA83F3DBB25B09DBB243F00203DBB249
:10520000022B02D1394B1B6A07E00223BB61BB6949
:1052100093FAA3F37B61354B5B6A02223A613A69E8
:1052200092FAA2F2FA60FA68B2FA82F2D2B242F0CC
:105230004002D2B202F01F02012101FA02F2134031
:10524000002BBDD0294B1B6A23F440727B685B683E
:10525000264913430B6297F84730012B05D1234BA6
:10526000DB69224A23F08053D3617B681B6803F01B
:105270000103002B08D01D4B1B6B23F003027B683E
:105280009B681A4913430B637B681B6803F0200378
:10529000002B08D0154B1B6B23F010027B68DB68DA
:1052A000124913430B637B681B6803F08003002BD8
:1052B00008D00E4BDB6A23F4F8727B681B690B493C
:1052C0001343CB627B681B6803F48053002B08D028
:1052D000064B1B6B23F480727B685B6903491343A5
:1052E0000B63002318464837BD4680BD00100240BE
:1052F000007000400081901080B5ADF5007D00AFDA
:1053000007F50073A3F5FE73186007F50073A3F5A6
:10531000FE731B68002B02D1012301F023B807F5AF
:105320000073A3F5FE731B681B6803F00103002BD9
:1053300000F07D81BC4B5B6803F00C03042B0CD0A8
:10534000B94B5B6803F00C03082B5CD1B64B5B6870
:1053500003F48033B3F5803F55D14FF40033C7F8E1
:10536000F031D7F8F03193FAA3F3C7F8EC31D7F85E
:10537000EC31B3FA83F3DBB25B09DBB243F0010338
:10538000DBB2012B02D1A84B1B6815E04FF40033B0
:10539000C7F8E831D7F8E83193FAA3F3C7F8E43156
:1053A0004FF40033C7F8E031D7F8E03193FAA3F3B4
:1053B000C7F8DC319C4B5B6A4FF40032C7F8D82148
:1053C000D7F8D82192FAA2F2C7F8D421D7F8D4217D
:1053D000B2FA82F2D2B242F02002D2B202F01F023E
:1053E000012101FA02F21340002B00F01F8107F5A2
:1053F0000073A3F5FE731B685B68002B40F01681F9
:10540000012300F0AFBF07F50073A3F5FE731B681F
:105410005B68B3F5803F06D1834B1B68824A43F437
:105420008033136036E007F50073A3F5FE731B6845
:105430005B68002B0CD17C4B1B687B4A23F48033C8
:105440001360794B1B68784A23F48023136021E0B2
:1054500007F50073A3F5FE731B685B68B3F5A02F17
:105460000CD1714B1B68704A43F4802313606E4B60
:105470001B686D4A43F4803313600BE06A4B1B6872
:10548000694A23F480331360674B1B68664A23F430
:1054900080231360644BDB6A23F00F0207F500736F
:1054A000A3F5FE731B689B685F491343CB6207F546
:1054B0000073A3F5FE731B685B68002B59D003F0E3
:1054C0004BF9C7F8F8010AE003F046F90246D7F8AD
:1054D000F831D31A642B02D9032300F043BF4FF4F1
:1054E0000033C7F8D031D7F8D03193FAA3F3C7F817
:1054F000CC31D7F8CC31B3FA83F3DBB25B09DBB242
:1055000043F00103DBB2012B02D1474B1B6815E0CE
:105510004FF40033C7F8C831D7F8C83193FAA3F372
:10552000C7F8C4314FF40033C7F8C031D7F8C031E1
:1055300093FAA3F3C7F8BC313B4B5B6A4FF40032DC
:10554000C7F8B821D7F8B82192FAA2F2C7F8B42167
:10555000D7F8B421B2FA82F2D2B242F02002D2B22B
:1055600002F01F02012101FA02F21340002BABD01E
:105570005DE003F0F1F8C7F8F8010AE003F0ECF899
:105580000246D7F8F831D31A642B02D9032300F06E
:10559000E9BE4FF40033C7F8B031D7F8B03193FA11
:1055A000A3F3C7F8AC31D7F8AC31B3FA83F3DBB26D
:1055B0005B09DBB243F00103DBB2012B02D11A4BD2
:1055C0001B6815E04FF40033C7F8A831D7F8A831AD
:1055D00093FAA3F3C7F8A4314FF40033C7F8A0310E
:1055E000D7F8A03193FAA3F3C7F89C310E4B5B6A4E
:1055F0004FF40032C7F89821D7F8982192FAA2F216
:10560000C7F89421D7F89421B2FA82F2D2B242F0CC
:105610002002D2B202F01F02012101FA02F213406D
:10562000002BABD103E000BF0010024000BF07F524
:105630000073A3F5FE731B681B6803F00203002BC5
:1056400000F07D81A64B5B6803F00C03002B0BD0B0
:10565000A34B5B6803F00C03082B72D1A04B5B6873
:1056600003F48033002B6CD10223C7F89031D7F8B4
:10567000903193FAA3F3C7F88C31D7F88C31B3FA91
:1056800083F3DBB25B09DBB243F00103DBB2012B36
:1056900002D1934B1B6813E00223C7F88831D7F877
:1056A000883193FAA3F3C7F884310223C7F8803115
:1056B000D7F8803193FAA3F3C7F87C31884B5B6A43
:1056C0000222C7F87821D7F8782192FAA2F2C7F817
:1056D0007421D7F87421B2FA82F2D2B242F02002D9
:1056E000D2B202F01F02012101FA02F21340002B94
:1056F0000AD007F50073A3F5FE731B681B69012B25
:1057000002D0012300F02EBE754B1B6823F0F80277
:1057100007F50073A3F5FE731B685B69F821C7F8F2
:105720007011D7F8701191FAA1F1C7F86C11D7F880
:105730006C11B1FA81F1C9B28B40694913430B6016
:10574000FDE007F50073A3F5FE731B681B69002BD2
:1057500000F088800123C7F86831D7F8683193FAE0
:10576000A3F3C7F86431D7F86431B3FA83F3DBB23B
:1057700003F1845303F584139B001A46012313603D
:1057800002F0EAFFC7F8F8010AE002F0E5FF02467E
:10579000D7F8F831D31A022B02D9032300F0E2BD67
:1057A0000223C7F86031D7F8603193FAA3F3C7F842
:1057B0005C31D7F85C31B3FA83F3DBB25B09DBB25F
:1057C00043F00103DBB2012B02D1454B1B6813E010
:1057D0000223C7F85831D7F8583193FAA3F3C7F822
:1057E00054310223C7F85031D7F8503193FAA3F35C
:1057F000C7F84C313A4B5B6A0222C7F84821D7F808
:10580000482192FAA2F2C7F84421D7F84421B2FA0B
:1058100082F2D2B242F02002D2B202F01F02012183
:1058200001FA02F21340002BAFD02D4B1B6823F07E
:10583000F80207F50073A3F5FE731B685B69F82196
:10584000C7F84011D7F8401191FAA1F1C7F83C11FF
:10585000D7F83C11B1FA81F1C9B28B40204913430A
:105860000B606CE00123C7F83831D7F8383193FA70
:10587000A3F3C7F83431D7F83431B3FA83F3DBB28A
:1058800003F1845303F584139B001A46002313602D
:1058900002F062FFC7F8F8010AE002F05DFF02467D
:1058A000D7F8F831D31A022B02D9032300F05ABDDE
:1058B0000223C7F83031D7F8303193FAA3F3C7F891
:1058C0002C31D7F82C31B3FA83F3DBB25B09DBB2AE
:1058D00043F00103DBB2012B04D1014B1B6815E03F
:1058E000001002400223C7F82831D7F8283193FA74
:1058F000A3F3C7F824310223C7F82031D7F82031A9
:1059000093FAA3F3C7F81C31C84B5B6A0222C7F8AD
:105910001821D7F8182192FAA2F2C7F81421D7F863
:105920001421B2FA82F2D2B242F02002D2B202F0D4
:105930001F02012101FA02F21340002BADD107F53D
:105940000073A3F5FE731B681B6803F00803002BAC
:1059500000F0108107F50073A3F5FE731B689B69C7
:10596000002B79D00123C7F81031D7F8103193FA02
:10597000A3F3C7F80C31D7F80C31B3FA83F3DBB2D9
:105980001A46AB4B13449B001A460123136002F0E6
:10599000E3FEC7F8F8010AE002F0DEFE0246D7F89F
:1059A000F831D31A022B02D9032300F0DBBC022307
:1059B000C7F80831D7F8083193FAA3F3C7F80431D0
:1059C00007F50073A3F5807302221A6007F50073D0
:1059D000A3F580731B6893FAA3F207F50073A3F590
:1059E00082731A6007F50073A3F5847302221A60AC
:1059F00007F50073A3F584731B6893FAA3F207F508
:105A00000073A3F586731A60884B5A6A07F5007312
:105A1000A3F588730221196007F50073A3F5887355
:105A20001B6893FAA3F107F50073A3F58A73196055
:105A300007F50073A3F58A731B68B3FA83F3DBB22F
:105A400043F06003DBB203F01F03012101FA03F30B
:105A50001340002BA0D08DE007F50073A3F58C73E5
:105A600001221A6007F50073A3F58C731B6893FA83
:105A7000A3F207F50073A3F58E731A6007F50073A0
:105A8000A3F58E731B68B3FA83F3DBB21A46684B37
:105A900013449B001A460023136002F05DFEC7F812
:105AA000F8010AE002F058FE0246D7F8F831D31A9E
:105AB000022B02D9032300F055BC07F50073A3F5B0
:105AC000907302221A6007F50073A3F590731B68A8
:105AD00093FAA3F207F50073A3F592731A6007F522
